{
  "_format": "hh-sol-artifact-1",
  "contractName": "FilGoodNFT1155",
  "sourceName": "contracts/FilGoodNFT1155.sol",
  "abi": [
    {
      "inputs": [],
      "stateMutability": "nonpayable",
      "type": "constructor"
    },
    {
      "anonymous": false,
      "inputs": [
        {
          "indexed": true,
          "internalType": "address",
          "name": "account",
          "type": "address"
        },
        {
          "indexed": true,
          "internalType": "address",
          "name": "operator",
          "type": "address"
        },
        {
          "indexed": false,
          "internalType": "bool",
          "name": "approved",
          "type": "bool"
        }
      ],
      "name": "ApprovalForAll",
      "type": "event"
    },
    {
      "anonymous": false,
      "inputs": [
        {
          "indexed": false,
          "internalType": "address",
          "name": "sender",
          "type": "address"
        },
        {
          "indexed": false,
          "internalType": "uint256",
          "name": "tokenId",
          "type": "uint256"
        },
        {
          "indexed": false,
          "internalType": "string",
          "name": "tokenURI",
          "type": "string"
        },
        {
          "indexed": false,
          "internalType": "uint256",
          "name": "remainingMintableNFTs",
          "type": "uint256"
        }
      ],
      "name": "NewFilGoodNFTMinted",
      "type": "event"
    },
    {
      "anonymous": false,
      "inputs": [
        {
          "indexed": true,
          "internalType": "address",
          "name": "operator",
          "type": "address"
        },
        {
          "indexed": true,
          "internalType": "address",
          "name": "from",
          "type": "address"
        },
        {
          "indexed": true,
          "internalType": "address",
          "name": "to",
          "type": "address"
        },
        {
          "indexed": false,
          "internalType": "uint256[]",
          "name": "ids",
          "type": "uint256[]"
        },
        {
          "indexed": false,
          "internalType": "uint256[]",
          "name": "values",
          "type": "uint256[]"
        }
      ],
      "name": "TransferBatch",
      "type": "event"
    },
    {
      "anonymous": false,
      "inputs": [
        {
          "indexed": true,
          "internalType": "address",
          "name": "operator",
          "type": "address"
        },
        {
          "indexed": true,
          "internalType": "address",
          "name": "from",
          "type": "address"
        },
        {
          "indexed": true,
          "internalType": "address",
          "name": "to",
          "type": "address"
        },
        {
          "indexed": false,
          "internalType": "uint256",
          "name": "id",
          "type": "uint256"
        },
        {
          "indexed": false,
          "internalType": "uint256",
          "name": "value",
          "type": "uint256"
        }
      ],
      "name": "TransferSingle",
      "type": "event"
    },
    {
      "anonymous": false,
      "inputs": [
        {
          "indexed": false,
          "internalType": "string",
          "name": "value",
          "type": "string"
        },
        {
          "indexed": true,
          "internalType": "uint256",
          "name": "id",
          "type": "uint256"
        }
      ],
      "name": "URI",
      "type": "event"
    },
    {
      "inputs": [
        {
          "internalType": "address",
          "name": "account",
          "type": "address"
        },
        {
          "internalType": "uint256",
          "name": "id",
          "type": "uint256"
        }
      ],
      "name": "balanceOf",
      "outputs": [
        {
          "internalType": "uint256",
          "name": "",
          "type": "uint256"
        }
      ],
      "stateMutability": "view",
      "type": "function"
    },
    {
      "inputs": [
        {
          "internalType": "address[]",
          "name": "accounts",
          "type": "address[]"
        },
        {
          "internalType": "uint256[]",
          "name": "ids",
          "type": "uint256[]"
        }
      ],
      "name": "balanceOfBatch",
      "outputs": [
        {
          "internalType": "uint256[]",
          "name": "",
          "type": "uint256[]"
        }
      ],
      "stateMutability": "view",
      "type": "function"
    },
    {
      "inputs": [],
      "name": "getNFTCollection",
      "outputs": [
        {
          "components": [
            {
              "internalType": "address",
              "name": "owner",
              "type": "address"
            },
            {
              "internalType": "string",
              "name": "tokenURI",
              "type": "string"
            },
            {
              "internalType": "uint256",
              "name": "tokenId",
              "type": "uint256"
            }
          ],
          "internalType": "struct FilGoodNFT1155.NFT[]",
          "name": "",
          "type": "tuple[]"
        }
      ],
      "stateMutability": "view",
      "type": "function"
    },
    {
      "inputs": [],
      "name": "getRemainingMintableNFTs",
      "outputs": [
        {
          "internalType": "uint256",
          "name": "",
          "type": "uint256"
        }
      ],
      "stateMutability": "view",
      "type": "function"
    },
    {
      "inputs": [
        {
          "internalType": "address",
          "name": "account",
          "type": "address"
        },
        {
          "internalType": "address",
          "name": "operator",
          "type": "address"
        }
      ],
      "name": "isApprovedForAll",
      "outputs": [
        {
          "internalType": "bool",
          "name": "",
          "type": "bool"
        }
      ],
      "stateMutability": "view",
      "type": "function"
    },
    {
      "inputs": [],
      "name": "maxNFTs",
      "outputs": [
        {
          "internalType": "uint256",
          "name": "",
          "type": "uint256"
        }
      ],
      "stateMutability": "view",
      "type": "function"
    },
    {
      "inputs": [
        {
          "internalType": "string",
          "name": "ipfsURI",
          "type": "string"
        }
      ],
      "name": "mintMyNFT",
      "outputs": [],
      "stateMutability": "nonpayable",
      "type": "function"
    },
    {
      "inputs": [
        {
          "internalType": "uint256",
          "name": "",
          "type": "uint256"
        }
      ],
      "name": "nftCollection",
      "outputs": [
        {
          "internalType": "address",
          "name": "owner",
          "type": "address"
        },
        {
          "internalType": "string",
          "name": "tokenURI",
          "type": "string"
        },
        {
          "internalType": "uint256",
          "name": "tokenId",
          "type": "uint256"
        }
      ],
      "stateMutability": "view",
      "type": "function"
    },
    {
      "inputs": [],
      "name": "remainingMintableNFTs",
      "outputs": [
        {
          "internalType": "uint256",
          "name": "",
          "type": "uint256"
        }
      ],
      "stateMutability": "view",
      "type": "function"
    },
    {
      "inputs": [
        {
          "internalType": "address",
          "name": "from",
          "type": "address"
        },
        {
          "internalType": "address",
          "name": "to",
          "type": "address"
        },
        {
          "internalType": "uint256[]",
          "name": "ids",
          "type": "uint256[]"
        },
        {
          "internalType": "uint256[]",
          "name": "amounts",
          "type": "uint256[]"
        },
        {
          "internalType": "bytes",
          "name": "data",
          "type": "bytes"
        }
      ],
      "name": "safeBatchTransferFrom",
      "outputs": [],
      "stateMutability": "nonpayable",
      "type": "function"
    },
    {
      "inputs": [
        {
          "internalType": "address",
          "name": "from",
          "type": "address"
        },
        {
          "internalType": "address",
          "name": "to",
          "type": "address"
        },
        {
          "internalType": "uint256",
          "name": "id",
          "type": "uint256"
        },
        {
          "internalType": "uint256",
          "name": "amount",
          "type": "uint256"
        },
        {
          "internalType": "bytes",
          "name": "data",
          "type": "bytes"
        }
      ],
      "name": "safeTransferFrom",
      "outputs": [],
      "stateMutability": "nonpayable",
      "type": "function"
    },
    {
      "inputs": [
        {
          "internalType": "address",
          "name": "operator",
          "type": "address"
        },
        {
          "internalType": "bool",
          "name": "approved",
          "type": "bool"
        }
      ],
      "name": "setApprovalForAll",
      "outputs": [],
      "stateMutability": "nonpayable",
      "type": "function"
    },
    {
      "inputs": [
        {
          "internalType": "bytes4",
          "name": "interfaceId",
          "type": "bytes4"
        }
      ],
      "name": "supportsInterface",
      "outputs": [
        {
          "internalType": "bool",
          "name": "",
          "type": "bool"
        }
      ],
      "stateMutability": "view",
      "type": "function"
    },
    {
      "inputs": [
        {
          "internalType": "uint256",
          "name": "_tokenId",
          "type": "uint256"
        }
      ],
      "name": "uri",
      "outputs": [
        {
          "internalType": "string",
          "name": "",
          "type": "string"
        }
      ],
      "stateMutability": "view",
      "type": "function"
    }
  ],
  "bytecode": "0x60806040523480156200001157600080fd5b506040518060400160405280600c81526020017f46696c2d476f6f64204e465400000000000000000000000000000000000000008152506200005981620000b360201b60201c565b50620000a56040518060400160405280601781526020017f54686973206973206d79204e465420636f6e7472616374000000000000000000815250620000cf60201b62000ce11760201c565b606460058190555062000378565b8060029080519060200190620000cb9291906200019b565b5050565b6200016f81604051602401620000e691906200028c565b6040516020818303038152906040527f41304fac000000000000000000000000000000000000000000000000000000007bffffffffffffffffffffffffffffffffffffffffffffffffffffffff19166020820180517bffffffffffffffffffffffffffffffffffffffffffffffffffffffff83818316178352505050506200017260201b60201c565b50565b60008151905060006a636f6e736f6c652e6c6f679050602083016000808483855afa5050505050565b828054620001a99062000302565b90600052602060002090601f016020900481019282620001cd576000855562000219565b82601f10620001e857805160ff191683800117855562000219565b8280016001018555821562000219579182015b8281111562000218578251825591602001919060010190620001fb565b5b5090506200022891906200022c565b5090565b5b80821115620002475760008160009055506001016200022d565b5090565b60006200025882620002b0565b620002648185620002bb565b935062000276818560208601620002cc565b620002818162000367565b840191505092915050565b60006020820190508181036000830152620002a881846200024b565b905092915050565b600081519050919050565b600082825260208201905092915050565b60005b83811015620002ec578082015181840152602081019050620002cf565b83811115620002fc576000848401525b50505050565b600060028204905060018216806200031b57607f821691505b6020821081141562000332576200033162000338565b5b50919050565b7f4e487b7100000000000000000000000000000000000000000000000000000000600052602260045260246000fd5b6000601f19601f8301169050919050565b6132d480620003886000396000f3fe608060405234801561001057600080fd5b50600436106100e95760003560e01c80637c711b271161008c578063c298de7e11610066578063c298de7e14610270578063e985e9c51461028e578063f242432a146102be578063fedea023146102da576100e9565b80637c711b2714610204578063911fd8eb14610236578063a22cb46514610254576100e9565b80632eb2c2d6116100c85780632eb2c2d61461017e57806338d645761461019a5780634e1273f4146101b65780634e9e1ec6146101e6576100e9565b8062fdd58e146100ee57806301ffc9a71461011e5780630e89341c1461014e575b600080fd5b61010860048036038101906101039190612122565b6102f8565b60405161011591906129b0565b60405180910390f35b610138600480360381019061013391906121ca565b6103c1565b6040516101459190612813565b60405180910390f35b6101686004803603810190610163919061225d565b6104a3565b604051610175919061282e565b60405180910390f35b61019860048036038101906101939190611f98565b610548565b005b6101b460048036038101906101af919061221c565b6105e9565b005b6101d060048036038101906101cb919061215e565b61079c565b6040516101dd91906127ba565b60405180910390f35b6101ee61094d565b6040516101fb91906129b0565b60405180910390f35b61021e6004803603810190610219919061225d565b610953565b60405161022d9392919061270e565b60405180910390f35b61023e610a35565b60405161024b91906129b0565b60405180910390f35b61026e600480360381019061026991906120e6565b610a3b565b005b610278610a51565b60405161028591906129b0565b60405180910390f35b6102a860048036038101906102a39190611f5c565b610a5b565b6040516102b59190612813565b60405180910390f35b6102d860048036038101906102d39190612057565b610aef565b005b6102e2610b90565b6040516102ef9190612798565b60405180910390f35b60008073ffffffffffffffffffffffffffffffffffffffff168373ffffffffffffffffffffffffffffffffffffffff161415610369576040517f08c379a000000000000000000000000000000000000000000000000000000000815260040161036090612890565b60405180910390fd5b60008083815260200190815260200160002060008473ffffffffffffffffffffffffffffffffffffffff1673ffffffffffffffffffffffffffffffffffffffff16815260200190815260200160002054905092915050565b60007fd9b67a26000000000000000000000000000000000000000000000000000000007bffffffffffffffffffffffffffffffffffffffffffffffffffffffff1916827bffffffffffffffffffffffffffffffffffffffffffffffffffffffff1916148061048c57507f0e89341c000000000000000000000000000000000000000000000000000000007bffffffffffffffffffffffffffffffffffffffffffffffffffffffff1916827bffffffffffffffffffffffffffffffffffffffffffffffffffffffff1916145b8061049c575061049b82610d7a565b5b9050919050565b60606004600083815260200190815260200160002080546104c390612cce565b80601f01602080910402602001604051908101604052809291908181526020018280546104ef90612cce565b801561053c5780601f106105115761010080835404028352916020019161053c565b820191906000526020600020905b81548152906001019060200180831161051f57829003601f168201915b50505050509050919050565b610550610de4565b73ffffffffffffffffffffffffffffffffffffffff168573ffffffffffffffffffffffffffffffffffffffff161480610596575061059585610590610de4565b610a5b565b5b6105d5576040517f08c379a00000000000000000000000000000000000000000000000000000000081526004016105cc906128f0565b60405180910390fd5b6105e28585858585610dec565b5050505050565b6005546105f6600361115a565b1061060057600080fd5b600061060c600361115a565b9050600060405180606001604052803373ffffffffffffffffffffffffffffffffffffffff168152602001848152602001838152509050600083905061068a338460016040518060400160405280601081526020017f6d61796265206e616d6520686572653f00000000000000000000000000000000815250611168565b6106948385611319565b61069e6003611345565b6106a8600361115a565b6005546106b59190612be4565b600681905550600782908060018154018082558091505060019003906000526020600020906003020160009091909190915060008201518160000160006101000a81548173ffffffffffffffffffffffffffffffffffffffff021916908373ffffffffffffffffffffffffffffffffffffffff160217905550602082015181600101908051906020019061074a929190611c54565b506040820151816002015550507f79791877b69bd5d876524dcc51d3960d703b55b782691a60d7df02ab86466eaf33848660065460405161078e949392919061274c565b60405180910390a150505050565b606081518351146107e2576040517f08c379a00000000000000000000000000000000000000000000000000000000081526004016107d990612950565b60405180910390fd5b6000835167ffffffffffffffff811115610825577f4e487b7100000000000000000000000000000000000000000000000000000000600052604160045260246000fd5b6040519080825280602002602001820160405280156108535781602001602082028036833780820191505090505b50905060005b8451811015610942576108ec85828151811061089e577f4e487b7100000000000000000000000000000000000000000000000000000000600052603260045260246000fd5b60200260200101518583815181106108df577f4e487b7100000000000000000000000000000000000000000000000000000000600052603260045260246000fd5b60200260200101516102f8565b828281518110610925577f4e487b7100000000000000000000000000000000000000000000000000000000600052603260045260246000fd5b6020026020010181815250508061093b90612d31565b9050610859565b508091505092915050565b60055481565b6007818154811061096357600080fd5b90600052602060002090600302016000915090508060000160009054906101000a900473ffffffffffffffffffffffffffffffffffffffff16908060010180546109ac90612cce565b80601f01602080910402602001604051908101604052809291908181526020018280546109d890612cce565b8015610a255780601f106109fa57610100808354040283529160200191610a25565b820191906000526020600020905b815481529060010190602001808311610a0857829003601f168201915b5050505050908060020154905083565b60065481565b610a4d610a46610de4565b838361135b565b5050565b6000600654905090565b6000600160008473ffffffffffffffffffffffffffffffffffffffff1673ffffffffffffffffffffffffffffffffffffffff16815260200190815260200160002060008373ffffffffffffffffffffffffffffffffffffffff1673ffffffffffffffffffffffffffffffffffffffff16815260200190815260200160002060009054906101000a900460ff16905092915050565b610af7610de4565b73ffffffffffffffffffffffffffffffffffffffff168573ffffffffffffffffffffffffffffffffffffffff161480610b3d5750610b3c85610b37610de4565b610a5b565b5b610b7c576040517f08c379a0000000000000000000000000000000000000000000000000000000008152600401610b73906128b0565b60405180910390fd5b610b8985858585856114c8565b5050505050565b60606007805480602002602001604051908101604052809291908181526020016000905b82821015610cd857838290600052602060002090600302016040518060600160405290816000820160009054906101000a900473ffffffffffffffffffffffffffffffffffffffff1673ffffffffffffffffffffffffffffffffffffffff1673ffffffffffffffffffffffffffffffffffffffff168152602001600182018054610c3d90612cce565b80601f0160208091040260200160405190810160405280929190818152602001828054610c6990612cce565b8015610cb65780601f10610c8b57610100808354040283529160200191610cb6565b820191906000526020600020905b815481529060010190602001808311610c9957829003601f168201915b5050505050815260200160028201548152505081526020019060010190610bb4565b50505050905090565b610d7781604051602401610cf5919061282e565b6040516020818303038152906040527f41304fac000000000000000000000000000000000000000000000000000000007bffffffffffffffffffffffffffffffffffffffffffffffffffffffff19166020820180517bffffffffffffffffffffffffffffffffffffffffffffffffffffffff8381831617835250505050611764565b50565b60007f01ffc9a7000000000000000000000000000000000000000000000000000000007bffffffffffffffffffffffffffffffffffffffffffffffffffffffff1916827bffffffffffffffffffffffffffffffffffffffffffffffffffffffff1916149050919050565b600033905090565b8151835114610e30576040517f08c379a0000000000000000000000000000000000000000000000000000000008152600401610e2790612970565b60405180910390fd5b600073ffffffffffffffffffffffffffffffffffffffff168473ffffffffffffffffffffffffffffffffffffffff161415610ea0576040517f08c379a0000000000000000000000000000000000000000000000000000000008152600401610e97906128d0565b60405180910390fd5b6000610eaa610de4565b9050610eba81878787878761178d565b60005b84518110156110b7576000858281518110610f01577f4e487b7100000000000000000000000000000000000000000000000000000000600052603260045260246000fd5b602002602001015190506000858381518110610f46577f4e487b7100000000000000000000000000000000000000000000000000000000600052603260045260246000fd5b60200260200101519050600080600084815260200190815260200160002060008b73ffffffffffffffffffffffffffffffffffffffff1673ffffffffffffffffffffffffffffffffffffffff16815260200190815260200160002054905081811015610fe7576040517f08c379a0000000000000000000000000000000000000000000000000000000008152600401610fde90612910565b60405180910390fd5b81810360008085815260200190815260200160002060008c73ffffffffffffffffffffffffffffffffffffffff1673ffffffffffffffffffffffffffffffffffffffff168152602001908152602001600020819055508160008085815260200190815260200160002060008b73ffffffffffffffffffffffffffffffffffffffff1673ffffffffffffffffffffffffffffffffffffffff168152602001908152602001600020600082825461109c9190612b8e565b92505081905550505050806110b090612d31565b9050610ebd565b508473ffffffffffffffffffffffffffffffffffffffff168673ffffffffffffffffffffffffffffffffffffffff168273ffffffffffffffffffffffffffffffffffffffff167f4a39dc06d4c0dbc64b70af90fd698a233a518aa5d07e595d983b8c0526c8f7fb878760405161112e9291906127dc565b60405180910390a4611144818787878787611795565b61115281878787878761179d565b505050505050565b600081600001549050919050565b600073ffffffffffffffffffffffffffffffffffffffff168473ffffffffffffffffffffffffffffffffffffffff1614156111d8576040517f08c379a00000000000000000000000000000000000000000000000000000000081526004016111cf90612990565b60405180910390fd5b60006111e2610de4565b905060006111ef85611984565b905060006111fc85611984565b905061120d8360008985858961178d565b8460008088815260200190815260200160002060008973ffffffffffffffffffffffffffffffffffffffff1673ffffffffffffffffffffffffffffffffffffffff168152602001908152602001600020600082825461126c9190612b8e565b925050819055508673ffffffffffffffffffffffffffffffffffffffff16600073ffffffffffffffffffffffffffffffffffffffff168473ffffffffffffffffffffffffffffffffffffffff167fc3d58168c5ae7397731d063d5bbf3d657854427343f4c083240f7aacaa2d0f6289896040516112ea9291906129cb565b60405180910390a461130183600089858589611795565b61131083600089898989611a4a565b50505050505050565b80600460008481526020019081526020016000209080519060200190611340929190611c54565b505050565b6001816000016000828254019250508190555050565b8173ffffffffffffffffffffffffffffffffffffffff168373ffffffffffffffffffffffffffffffffffffffff1614156113ca576040517f08c379a00000000000000000000000000000000000000000000000000000000081526004016113c190612930565b60405180910390fd5b80600160008573ffffffffffffffffffffffffffffffffffffffff1673ffffffffffffffffffffffffffffffffffffffff16815260200190815260200160002060008473ffffffffffffffffffffffffffffffffffffffff1673ffffffffffffffffffffffffffffffffffffffff16815260200190815260200160002060006101000a81548160ff0219169083151502179055508173ffffffffffffffffffffffffffffffffffffffff168373ffffffffffffffffffffffffffffffffffffffff167f17307eab39ab6107e8899845ad3d59bd9653f200f220920489ca2b5937696c31836040516114bb9190612813565b60405180910390a3505050565b600073ffffffffffffffffffffffffffffffffffffffff168473ffffffffffffffffffffffffffffffffffffffff161415611538576040517f08c379a000000000000000000000000000000000000000000000000000000000815260040161152f906128d0565b60405180910390fd5b6000611542610de4565b9050600061154f85611984565b9050600061155c85611984565b905061156c83898985858961178d565b600080600088815260200190815260200160002060008a73ffffffffffffffffffffffffffffffffffffffff1673ffffffffffffffffffffffffffffffffffffffff16815260200190815260200160002054905085811015611603576040517f08c379a00000000000000000000000000000000000000000000000000000000081526004016115fa90612910565b60405180910390fd5b85810360008089815260200190815260200160002060008b73ffffffffffffffffffffffffffffffffffffffff1673ffffffffffffffffffffffffffffffffffffffff168152602001908152602001600020819055508560008089815260200190815260200160002060008a73ffffffffffffffffffffffffffffffffffffffff1673ffffffffffffffffffffffffffffffffffffffff16815260200190815260200160002060008282546116b89190612b8e565b925050819055508773ffffffffffffffffffffffffffffffffffffffff168973ffffffffffffffffffffffffffffffffffffffff168573ffffffffffffffffffffffffffffffffffffffff167fc3d58168c5ae7397731d063d5bbf3d657854427343f4c083240f7aacaa2d0f628a8a6040516117359291906129cb565b60405180910390a461174b848a8a86868a611795565b611759848a8a8a8a8a611a4a565b505050505050505050565b60008151905060006a636f6e736f6c652e6c6f679050602083016000808483855afa5050505050565b505050505050565b505050505050565b6117bc8473ffffffffffffffffffffffffffffffffffffffff16611c31565b1561197c578373ffffffffffffffffffffffffffffffffffffffff1663bc197c8187878686866040518663ffffffff1660e01b815260040161180295949392919061264c565b602060405180830381600087803b15801561181c57600080fd5b505af192505050801561184d57506040513d601f19601f8201168201806040525081019061184a91906121f3565b60015b6118f357611859612e07565b806308c379a014156118b6575061186e6131ac565b8061187957506118b8565b806040517f08c379a00000000000000000000000000000000000000000000000000000000081526004016118ad919061282e565b60405180910390fd5b505b6040517f08c379a00000000000000000000000000000000000000000000000000000000081526004016118ea90612850565b60405180910390fd5b63bc197c8160e01b7bffffffffffffffffffffffffffffffffffffffffffffffffffffffff1916817bffffffffffffffffffffffffffffffffffffffffffffffffffffffff19161461197a576040517f08c379a000000000000000000000000000000000000000000000000000000000815260040161197190612870565b60405180910390fd5b505b505050505050565b60606000600167ffffffffffffffff8111156119c9577f4e487b7100000000000000000000000000000000000000000000000000000000600052604160045260246000fd5b6040519080825280602002602001820160405280156119f75781602001602082028036833780820191505090505b5090508281600081518110611a35577f4e487b7100000000000000000000000000000000000000000000000000000000600052603260045260246000fd5b60200260200101818152505080915050919050565b611a698473ffffffffffffffffffffffffffffffffffffffff16611c31565b15611c29578373ffffffffffffffffffffffffffffffffffffffff1663f23a6e6187878686866040518663ffffffff1660e01b8152600401611aaf9594939291906126b4565b602060405180830381600087803b158015611ac957600080fd5b505af1925050508015611afa57506040513d601f19601f82011682018060405250810190611af791906121f3565b60015b611ba057611b06612e07565b806308c379a01415611b635750611b1b6131ac565b80611b265750611b65565b806040517f08c379a0000000000000000000000000000000000000000000000000000000008152600401611b5a919061282e565b60405180910390fd5b505b6040517f08c379a0000000000000000000000000000000000000000000000000000000008152600401611b9790612850565b60405180910390fd5b63f23a6e6160e01b7bffffffffffffffffffffffffffffffffffffffffffffffffffffffff1916817bffffffffffffffffffffffffffffffffffffffffffffffffffffffff191614611c27576040517f08c379a0000000000000000000000000000000000000000000000000000000008152600401611c1e90612870565b60405180910390fd5b505b505050505050565b6000808273ffffffffffffffffffffffffffffffffffffffff163b119050919050565b828054611c6090612cce565b90600052602060002090601f016020900481019282611c825760008555611cc9565b82601f10611c9b57805160ff1916838001178555611cc9565b82800160010185558215611cc9579182015b82811115611cc8578251825591602001919060010190611cad565b5b509050611cd69190611cda565b5090565b5b80821115611cf3576000816000905550600101611cdb565b5090565b6000611d0a611d0584612a19565b6129f4565b90508083825260208201905082856020860282011115611d2957600080fd5b60005b85811015611d595781611d3f8882611e4b565b845260208401935060208301925050600181019050611d2c565b5050509392505050565b6000611d76611d7184612a45565b6129f4565b90508083825260208201905082856020860282011115611d9557600080fd5b60005b85811015611dc55781611dab8882611f47565b845260208401935060208301925050600181019050611d98565b5050509392505050565b6000611de2611ddd84612a71565b6129f4565b905082815260208101848484011115611dfa57600080fd5b611e05848285612c8c565b509392505050565b6000611e20611e1b84612aa2565b6129f4565b905082815260208101848484011115611e3857600080fd5b611e43848285612c8c565b509392505050565b600081359050611e5a81613242565b92915050565b600082601f830112611e7157600080fd5b8135611e81848260208601611cf7565b91505092915050565b600082601f830112611e9b57600080fd5b8135611eab848260208601611d63565b91505092915050565b600081359050611ec381613259565b92915050565b600081359050611ed881613270565b92915050565b600081519050611eed81613270565b92915050565b600082601f830112611f0457600080fd5b8135611f14848260208601611dcf565b91505092915050565b600082601f830112611f2e57600080fd5b8135611f3e848260208601611e0d565b91505092915050565b600081359050611f5681613287565b92915050565b60008060408385031215611f6f57600080fd5b6000611f7d85828601611e4b565b9250506020611f8e85828601611e4b565b9150509250929050565b600080600080600060a08688031215611fb057600080fd5b6000611fbe88828901611e4b565b9550506020611fcf88828901611e4b565b945050604086013567ffffffffffffffff811115611fec57600080fd5b611ff888828901611e8a565b935050606086013567ffffffffffffffff81111561201557600080fd5b61202188828901611e8a565b925050608086013567ffffffffffffffff81111561203e57600080fd5b61204a88828901611ef3565b9150509295509295909350565b600080600080600060a0868803121561206f57600080fd5b600061207d88828901611e4b565b955050602061208e88828901611e4b565b945050604061209f88828901611f47565b93505060606120b088828901611f47565b925050608086013567ffffffffffffffff8111156120cd57600080fd5b6120d988828901611ef3565b9150509295509295909350565b600080604083850312156120f957600080fd5b600061210785828601611e4b565b925050602061211885828601611eb4565b9150509250929050565b6000806040838503121561213557600080fd5b600061214385828601611e4b565b925050602061215485828601611f47565b9150509250929050565b6000806040838503121561217157600080fd5b600083013567ffffffffffffffff81111561218b57600080fd5b61219785828601611e60565b925050602083013567ffffffffffffffff8111156121b457600080fd5b6121c085828601611e8a565b9150509250929050565b6000602082840312156121dc57600080fd5b60006121ea84828501611ec9565b91505092915050565b60006020828403121561220557600080fd5b600061221384828501611ede565b91505092915050565b60006020828403121561222e57600080fd5b600082013567ffffffffffffffff81111561224857600080fd5b61225484828501611f1d565b91505092915050565b60006020828403121561226f57600080fd5b600061227d84828501611f47565b91505092915050565b600061229283836125de565b905092915050565b60006122a6838361262e565b60208301905092915050565b6122bb81612c18565b82525050565b6122ca81612c18565b82525050565b60006122db82612af3565b6122e58185612b39565b9350836020820285016122f785612ad3565b8060005b8581101561233357848403895281516123148582612286565b945061231f83612b1f565b925060208a019950506001810190506122fb565b50829750879550505050505092915050565b600061235082612afe565b61235a8185612b4a565b935061236583612ae3565b8060005b8381101561239657815161237d888261229a565b975061238883612b2c565b925050600181019050612369565b5085935050505092915050565b6123ac81612c2a565b82525050565b60006123bd82612b09565b6123c78185612b5b565b93506123d7818560208601612c9b565b6123e081612e29565b840191505092915050565b60006123f682612b14565b6124008185612b6c565b9350612410818560208601612c9b565b61241981612e29565b840191505092915050565b600061242f82612b14565b6124398185612b7d565b9350612449818560208601612c9b565b61245281612e29565b840191505092915050565b600061246a603483612b7d565b915061247582612e47565b604082019050919050565b600061248d602883612b7d565b915061249882612e96565b604082019050919050565b60006124b0602b83612b7d565b91506124bb82612ee5565b604082019050919050565b60006124d3602983612b7d565b91506124de82612f34565b604082019050919050565b60006124f6602583612b7d565b915061250182612f83565b604082019050919050565b6000612519603283612b7d565b915061252482612fd2565b604082019050919050565b600061253c602a83612b7d565b915061254782613021565b604082019050919050565b600061255f602983612b7d565b915061256a82613070565b604082019050919050565b6000612582602983612b7d565b915061258d826130bf565b604082019050919050565b60006125a5602883612b7d565b91506125b08261310e565b604082019050919050565b60006125c8602183612b7d565b91506125d38261315d565b604082019050919050565b60006060830160008301516125f660008601826122b2565b506020830151848203602086015261260e82826123eb565b9150506040830151612623604086018261262e565b508091505092915050565b61263781612c82565b82525050565b61264681612c82565b82525050565b600060a08201905061266160008301886122c1565b61266e60208301876122c1565b81810360408301526126808186612345565b905081810360608301526126948185612345565b905081810360808301526126a881846123b2565b90509695505050505050565b600060a0820190506126c960008301886122c1565b6126d660208301876122c1565b6126e3604083018661263d565b6126f0606083018561263d565b818103608083015261270281846123b2565b90509695505050505050565b600060608201905061272360008301866122c1565b81810360208301526127358185612424565b9050612744604083018461263d565b949350505050565b600060808201905061276160008301876122c1565b61276e602083018661263d565b81810360408301526127808185612424565b905061278f606083018461263d565b95945050505050565b600060208201905081810360008301526127b281846122d0565b905092915050565b600060208201905081810360008301526127d48184612345565b905092915050565b600060408201905081810360008301526127f68185612345565b9050818103602083015261280a8184612345565b90509392505050565b600060208201905061282860008301846123a3565b92915050565b600060208201905081810360008301526128488184612424565b905092915050565b600060208201905081810360008301526128698161245d565b9050919050565b6000602082019050818103600083015261288981612480565b9050919050565b600060208201905081810360008301526128a9816124a3565b9050919050565b600060208201905081810360008301526128c9816124c6565b9050919050565b600060208201905081810360008301526128e9816124e9565b9050919050565b600060208201905081810360008301526129098161250c565b9050919050565b600060208201905081810360008301526129298161252f565b9050919050565b6000602082019050818103600083015261294981612552565b9050919050565b6000602082019050818103600083015261296981612575565b9050919050565b6000602082019050818103600083015261298981612598565b9050919050565b600060208201905081810360008301526129a9816125bb565b9050919050565b60006020820190506129c5600083018461263d565b92915050565b60006040820190506129e0600083018561263d565b6129ed602083018461263d565b9392505050565b60006129fe612a0f565b9050612a0a8282612d00565b919050565b6000604051905090565b600067ffffffffffffffff821115612a3457612a33612dd8565b5b602082029050602081019050919050565b600067ffffffffffffffff821115612a6057612a5f612dd8565b5b602082029050602081019050919050565b600067ffffffffffffffff821115612a8c57612a8b612dd8565b5b612a9582612e29565b9050602081019050919050565b600067ffffffffffffffff821115612abd57612abc612dd8565b5b612ac682612e29565b9050602081019050919050565b6000819050602082019050919050565b6000819050602082019050919050565b600081519050919050565b600081519050919050565b600081519050919050565b600081519050919050565b6000602082019050919050565b6000602082019050919050565b600082825260208201905092915050565b600082825260208201905092915050565b600082825260208201905092915050565b600082825260208201905092915050565b600082825260208201905092915050565b6000612b9982612c82565b9150612ba483612c82565b9250827fffffffffffffffffffffffffffffffffffffffffffffffffffffffffffffffff03821115612bd957612bd8612d7a565b5b828201905092915050565b6000612bef82612c82565b9150612bfa83612c82565b925082821015612c0d57612c0c612d7a565b5b828203905092915050565b6000612c2382612c62565b9050919050565b60008115159050919050565b60007fffffffff0000000000000000000000000000000000000000000000000000000082169050919050565b600073ffffffffffffffffffffffffffffffffffffffff82169050919050565b6000819050919050565b82818337600083830152505050565b60005b83811015612cb9578082015181840152602081019050612c9e565b83811115612cc8576000848401525b50505050565b60006002820490506001821680612ce657607f821691505b60208210811415612cfa57612cf9612da9565b5b50919050565b612d0982612e29565b810181811067ffffffffffffffff82111715612d2857612d27612dd8565b5b80604052505050565b6000612d3c82612c82565b91507fffffffffffffffffffffffffffffffffffffffffffffffffffffffffffffffff821415612d6f57612d6e612d7a565b5b600182019050919050565b7f4e487b7100000000000000000000000000000000000000000000000000000000600052601160045260246000fd5b7f4e487b7100000000000000000000000000000000000000000000000000000000600052602260045260246000fd5b7f4e487b7100000000000000000000000000000000000000000000000000000000600052604160045260246000fd5b600060033d1115612e265760046000803e612e23600051612e3a565b90505b90565b6000601f19601f8301169050919050565b60008160e01c9050919050565b7f455243313135353a207472616e7366657220746f206e6f6e204552433131353560008201527f526563656976657220696d706c656d656e746572000000000000000000000000602082015250565b7f455243313135353a204552433131353552656365697665722072656a6563746560008201527f6420746f6b656e73000000000000000000000000000000000000000000000000602082015250565b7f455243313135353a2062616c616e636520717565727920666f7220746865207a60008201527f65726f2061646472657373000000000000000000000000000000000000000000602082015250565b7f455243313135353a2063616c6c6572206973206e6f74206f776e6572206e6f7260008201527f20617070726f7665640000000000000000000000000000000000000000000000602082015250565b7f455243313135353a207472616e7366657220746f20746865207a65726f20616460008201527f6472657373000000000000000000000000000000000000000000000000000000602082015250565b7f455243313135353a207472616e736665722063616c6c6572206973206e6f742060008201527f6f776e6572206e6f7220617070726f7665640000000000000000000000000000602082015250565b7f455243313135353a20696e73756666696369656e742062616c616e636520666f60008201527f72207472616e7366657200000000000000000000000000000000000000000000602082015250565b7f455243313135353a2073657474696e6720617070726f76616c2073746174757360008201527f20666f722073656c660000000000000000000000000000000000000000000000602082015250565b7f455243313135353a206163636f756e747320616e6420696473206c656e67746860008201527f206d69736d617463680000000000000000000000000000000000000000000000602082015250565b7f455243313135353a2069647320616e6420616d6f756e7473206c656e6774682060008201527f6d69736d61746368000000000000000000000000000000000000000000000000602082015250565b7f455243313135353a206d696e7420746f20746865207a65726f2061646472657360008201527f7300000000000000000000000000000000000000000000000000000000000000602082015250565b600060443d10156131bc5761323f565b6131c4612a0f565b60043d036004823e80513d602482011167ffffffffffffffff821117156131ec57505061323f565b808201805167ffffffffffffffff81111561320a575050505061323f565b80602083010160043d03850181111561322757505050505061323f565b61323682602001850186612d00565b82955050505050505b90565b61324b81612c18565b811461325657600080fd5b50565b61326281612c2a565b811461326d57600080fd5b50565b61327981612c36565b811461328457600080fd5b50565b61329081612c82565b811461329b57600080fd5b5056fea26469706673582212203a0d8d2c2fdc96c45eab8cefd06d3be1b285751f57bd197de68b32dc7a548d9064736f6c63430008040033",
  "linkReferences": {},
  "deployedLinkReferences": {}
}