{
  "_format": "hh-sol-artifact-1",
  "contractName": "FilGoodNFT1155",
  "sourceName": "contracts/FilGoodNFT1155.sol",
  "abi": [
    {
      "inputs": [],
      "stateMutability": "nonpayable",
      "type": "constructor"
    },
    {
      "anonymous": false,
      "inputs": [
        {
          "indexed": true,
          "internalType": "address",
          "name": "account",
          "type": "address"
        },
        {
          "indexed": true,
          "internalType": "address",
          "name": "operator",
          "type": "address"
        },
        {
          "indexed": false,
          "internalType": "bool",
          "name": "approved",
          "type": "bool"
        }
      ],
      "name": "ApprovalForAll",
      "type": "event"
    },
    {
      "anonymous": false,
      "inputs": [
        {
          "indexed": true,
          "internalType": "address",
          "name": "sender",
          "type": "address"
        },
        {
          "indexed": true,
          "internalType": "uint256",
          "name": "tokenId",
          "type": "uint256"
        },
        {
          "indexed": false,
          "internalType": "string",
          "name": "tokenURI",
          "type": "string"
        },
        {
          "indexed": false,
          "internalType": "uint256",
          "name": "remainingMintableNFTs",
          "type": "uint256"
        }
      ],
      "name": "NewFilGoodNFTMinted",
      "type": "event"
    },
    {
      "anonymous": false,
      "inputs": [
        {
          "indexed": true,
          "internalType": "address",
          "name": "operator",
          "type": "address"
        },
        {
          "indexed": true,
          "internalType": "address",
          "name": "from",
          "type": "address"
        },
        {
          "indexed": true,
          "internalType": "address",
          "name": "to",
          "type": "address"
        },
        {
          "indexed": false,
          "internalType": "uint256[]",
          "name": "ids",
          "type": "uint256[]"
        },
        {
          "indexed": false,
          "internalType": "uint256[]",
          "name": "values",
          "type": "uint256[]"
        }
      ],
      "name": "TransferBatch",
      "type": "event"
    },
    {
      "anonymous": false,
      "inputs": [
        {
          "indexed": true,
          "internalType": "address",
          "name": "operator",
          "type": "address"
        },
        {
          "indexed": true,
          "internalType": "address",
          "name": "from",
          "type": "address"
        },
        {
          "indexed": true,
          "internalType": "address",
          "name": "to",
          "type": "address"
        },
        {
          "indexed": false,
          "internalType": "uint256",
          "name": "id",
          "type": "uint256"
        },
        {
          "indexed": false,
          "internalType": "uint256",
          "name": "value",
          "type": "uint256"
        }
      ],
      "name": "TransferSingle",
      "type": "event"
    },
    {
      "anonymous": false,
      "inputs": [
        {
          "indexed": false,
          "internalType": "string",
          "name": "value",
          "type": "string"
        },
        {
          "indexed": true,
          "internalType": "uint256",
          "name": "id",
          "type": "uint256"
        }
      ],
      "name": "URI",
      "type": "event"
    },
    {
      "inputs": [
        {
          "internalType": "address",
          "name": "account",
          "type": "address"
        },
        {
          "internalType": "uint256",
          "name": "id",
          "type": "uint256"
        }
      ],
      "name": "balanceOf",
      "outputs": [
        {
          "internalType": "uint256",
          "name": "",
          "type": "uint256"
        }
      ],
      "stateMutability": "view",
      "type": "function"
    },
    {
      "inputs": [
        {
          "internalType": "address[]",
          "name": "accounts",
          "type": "address[]"
        },
        {
          "internalType": "uint256[]",
          "name": "ids",
          "type": "uint256[]"
        }
      ],
      "name": "balanceOfBatch",
      "outputs": [
        {
          "internalType": "uint256[]",
          "name": "",
          "type": "uint256[]"
        }
      ],
      "stateMutability": "view",
      "type": "function"
    },
    {
      "inputs": [],
      "name": "getNFTCollection",
      "outputs": [
        {
          "components": [
            {
              "internalType": "address",
              "name": "owner",
              "type": "address"
            },
            {
              "internalType": "string",
              "name": "tokenURI",
              "type": "string"
            },
            {
              "internalType": "uint256",
              "name": "tokenId",
              "type": "uint256"
            }
          ],
          "internalType": "struct FilGoodNFT1155.NFT[]",
          "name": "",
          "type": "tuple[]"
        }
      ],
      "stateMutability": "view",
      "type": "function"
    },
    {
      "inputs": [],
      "name": "getRemainingMintableNFTs",
      "outputs": [
        {
          "internalType": "uint256",
          "name": "",
          "type": "uint256"
        }
      ],
      "stateMutability": "view",
      "type": "function"
    },
    {
      "inputs": [
        {
          "internalType": "address",
          "name": "account",
          "type": "address"
        },
        {
          "internalType": "address",
          "name": "operator",
          "type": "address"
        }
      ],
      "name": "isApprovedForAll",
      "outputs": [
        {
          "internalType": "bool",
          "name": "",
          "type": "bool"
        }
      ],
      "stateMutability": "view",
      "type": "function"
    },
    {
      "inputs": [],
      "name": "maxNFTs",
      "outputs": [
        {
          "internalType": "uint256",
          "name": "",
          "type": "uint256"
        }
      ],
      "stateMutability": "view",
      "type": "function"
    },
    {
      "inputs": [
        {
          "internalType": "string",
          "name": "ipfsURI",
          "type": "string"
        }
      ],
      "name": "mintMyNFT",
      "outputs": [
        {
          "internalType": "uint256",
          "name": "",
          "type": "uint256"
        }
      ],
      "stateMutability": "nonpayable",
      "type": "function"
    },
    {
      "inputs": [],
      "name": "name",
      "outputs": [
        {
          "internalType": "string",
          "name": "",
          "type": "string"
        }
      ],
      "stateMutability": "view",
      "type": "function"
    },
    {
      "inputs": [
        {
          "internalType": "uint256",
          "name": "",
          "type": "uint256"
        }
      ],
      "name": "nftCollection",
      "outputs": [
        {
          "internalType": "address",
          "name": "owner",
          "type": "address"
        },
        {
          "internalType": "string",
          "name": "tokenURI",
          "type": "string"
        },
        {
          "internalType": "uint256",
          "name": "tokenId",
          "type": "uint256"
        }
      ],
      "stateMutability": "view",
      "type": "function"
    },
    {
      "inputs": [],
      "name": "remainingMintableNFTs",
      "outputs": [
        {
          "internalType": "uint256",
          "name": "",
          "type": "uint256"
        }
      ],
      "stateMutability": "view",
      "type": "function"
    },
    {
      "inputs": [
        {
          "internalType": "address",
          "name": "from",
          "type": "address"
        },
        {
          "internalType": "address",
          "name": "to",
          "type": "address"
        },
        {
          "internalType": "uint256[]",
          "name": "ids",
          "type": "uint256[]"
        },
        {
          "internalType": "uint256[]",
          "name": "amounts",
          "type": "uint256[]"
        },
        {
          "internalType": "bytes",
          "name": "data",
          "type": "bytes"
        }
      ],
      "name": "safeBatchTransferFrom",
      "outputs": [],
      "stateMutability": "nonpayable",
      "type": "function"
    },
    {
      "inputs": [
        {
          "internalType": "address",
          "name": "from",
          "type": "address"
        },
        {
          "internalType": "address",
          "name": "to",
          "type": "address"
        },
        {
          "internalType": "uint256",
          "name": "id",
          "type": "uint256"
        },
        {
          "internalType": "uint256",
          "name": "amount",
          "type": "uint256"
        },
        {
          "internalType": "bytes",
          "name": "data",
          "type": "bytes"
        }
      ],
      "name": "safeTransferFrom",
      "outputs": [],
      "stateMutability": "nonpayable",
      "type": "function"
    },
    {
      "inputs": [
        {
          "internalType": "address",
          "name": "operator",
          "type": "address"
        },
        {
          "internalType": "bool",
          "name": "approved",
          "type": "bool"
        }
      ],
      "name": "setApprovalForAll",
      "outputs": [],
      "stateMutability": "nonpayable",
      "type": "function"
    },
    {
      "inputs": [
        {
          "internalType": "bytes4",
          "name": "interfaceId",
          "type": "bytes4"
        }
      ],
      "name": "supportsInterface",
      "outputs": [
        {
          "internalType": "bool",
          "name": "",
          "type": "bool"
        }
      ],
      "stateMutability": "view",
      "type": "function"
    },
    {
      "inputs": [
        {
          "internalType": "uint256",
          "name": "_tokenId",
          "type": "uint256"
        }
      ],
      "name": "uri",
      "outputs": [
        {
          "internalType": "string",
          "name": "",
          "type": "string"
        }
      ],
      "stateMutability": "view",
      "type": "function"
    }
  ],
  "bytecode": "0x60806040526040518060400160405280601181526020017f46696c476f6f64204e46547320323032320000000000000000000000000000008152506007908051906020019062000051929190620001f1565b503480156200005f57600080fd5b506040518060400160405280600c81526020017f46696c2d476f6f64204e46540000000000000000000000000000000000000000815250620000a7816200010960201b60201c565b50620000f36040518060400160405280601781526020017f54686973206973206d79204e465420636f6e74726163740000000000000000008152506200012560201b62000dc71760201c565b60646005819055506064600681905550620003ce565b806002908051906020019062000121929190620001f1565b5050565b620001c5816040516024016200013c9190620002e2565b6040516020818303038152906040527f41304fac000000000000000000000000000000000000000000000000000000007bffffffffffffffffffffffffffffffffffffffffffffffffffffffff19166020820180517bffffffffffffffffffffffffffffffffffffffffffffffffffffffff8381831617835250505050620001c860201b60201c565b50565b60008151905060006a636f6e736f6c652e6c6f679050602083016000808483855afa5050505050565b828054620001ff9062000358565b90600052602060002090601f0160209004810192826200022357600085556200026f565b82601f106200023e57805160ff19168380011785556200026f565b828001600101855582156200026f579182015b828111156200026e57825182559160200191906001019062000251565b5b5090506200027e919062000282565b5090565b5b808211156200029d57600081600090555060010162000283565b5090565b6000620002ae8262000306565b620002ba818562000311565b9350620002cc81856020860162000322565b620002d781620003bd565b840191505092915050565b60006020820190508181036000830152620002fe8184620002a1565b905092915050565b600081519050919050565b600082825260208201905092915050565b60005b838110156200034257808201518184015260208101905062000325565b8381111562000352576000848401525b50505050565b600060028204905060018216806200037157607f821691505b602082108114156200038857620003876200038e565b5b50919050565b7f4e487b7100000000000000000000000000000000000000000000000000000000600052602260045260246000fd5b6000601f19601f8301169050919050565b61339e80620003de6000396000f3fe608060405234801561001057600080fd5b50600436106100f45760003560e01c80634e9e1ec611610097578063c298de7e11610066578063c298de7e146102ad578063e985e9c5146102cb578063f242432a146102fb578063fedea02314610317576100f4565b80634e9e1ec6146102235780637c711b2714610241578063911fd8eb14610273578063a22cb46514610291576100f4565b80630e89341c116100d35780630e89341c146101775780632eb2c2d6146101a757806338d64576146101c35780634e1273f4146101f3576100f4565b8062fdd58e146100f957806301ffc9a71461012957806306fdde0314610159575b600080fd5b610113600480360381019061010e9190612208565b610335565b6040516101209190612a7a565b60405180910390f35b610143600480360381019061013e91906122b0565b6103fe565b60405161015091906128ad565b60405180910390f35b6101616104e0565b60405161016e91906128c8565b60405180910390f35b610191600480360381019061018c9190612343565b61056e565b60405161019e91906128c8565b60405180910390f35b6101c160048036038101906101bc919061207e565b610613565b005b6101dd60048036038101906101d89190612302565b6106b4565b6040516101ea9190612a7a565b60405180910390f35b61020d60048036038101906102089190612244565b610882565b60405161021a9190612854565b60405180910390f35b61022b610a33565b6040516102389190612a7a565b60405180910390f35b61025b60048036038101906102569190612343565b610a39565b60405161026a939291906127f4565b60405180910390f35b61027b610b1b565b6040516102889190612a7a565b60405180910390f35b6102ab60048036038101906102a691906121cc565b610b21565b005b6102b5610b37565b6040516102c29190612a7a565b60405180910390f35b6102e560048036038101906102e09190612042565b610b41565b6040516102f291906128ad565b60405180910390f35b6103156004803603810190610310919061213d565b610bd5565b005b61031f610c76565b60405161032c9190612832565b60405180910390f35b60008073ffffffffffffffffffffffffffffffffffffffff168373ffffffffffffffffffffffffffffffffffffffff1614156103a6576040517f08c379a000000000000000000000000000000000000000000000000000000000815260040161039d9061295a565b60405180910390fd5b60008083815260200190815260200160002060008473ffffffffffffffffffffffffffffffffffffffff1673ffffffffffffffffffffffffffffffffffffffff16815260200190815260200160002054905092915050565b60007fd9b67a26000000000000000000000000000000000000000000000000000000007bffffffffffffffffffffffffffffffffffffffffffffffffffffffff1916827bffffffffffffffffffffffffffffffffffffffffffffffffffffffff191614806104c957507f0e89341c000000000000000000000000000000000000000000000000000000007bffffffffffffffffffffffffffffffffffffffffffffffffffffffff1916827bffffffffffffffffffffffffffffffffffffffffffffffffffffffff1916145b806104d957506104d882610e60565b5b9050919050565b600780546104ed90612d98565b80601f016020809104026020016040519081016040528092919081815260200182805461051990612d98565b80156105665780601f1061053b57610100808354040283529160200191610566565b820191906000526020600020905b81548152906001019060200180831161054957829003601f168201915b505050505081565b606060046000838152602001908152602001600020805461058e90612d98565b80601f01602080910402602001604051908101604052809291908181526020018280546105ba90612d98565b80156106075780601f106105dc57610100808354040283529160200191610607565b820191906000526020600020905b8154815290600101906020018083116105ea57829003601f168201915b50505050509050919050565b61061b610eca565b73ffffffffffffffffffffffffffffffffffffffff168573ffffffffffffffffffffffffffffffffffffffff16148061066157506106608561065b610eca565b610b41565b5b6106a0576040517f08c379a0000000000000000000000000000000000000000000000000000000008152600401610697906129ba565b60405180910390fd5b6106ad8585858585610ed2565b5050505050565b60006005546106c36003611240565b106106cd57600080fd5b60006106d96003611240565b9050600060405180606001604052803373ffffffffffffffffffffffffffffffffffffffff1681526020018581526020018381525090506000849050610757338460016040518060400160405280601081526020017f6d61796265206e616d6520686572653f0000000000000000000000000000000081525061124e565b61076183866113ff565b61076b600361142b565b6107756003611240565b6005546107829190612cae565b600681905550600882908060018154018082558091505060019003906000526020600020906003020160009091909190915060008201518160000160006101000a81548173ffffffffffffffffffffffffffffffffffffffff021916908373ffffffffffffffffffffffffffffffffffffffff1602179055506020820151816001019080519060200190610817929190611d3a565b50604082015181600201555050823373ffffffffffffffffffffffffffffffffffffffff167f79791877b69bd5d876524dcc51d3960d703b55b782691a60d7df02ab86466eaf8760065460405161086f9291906128ea565b60405180910390a3829350505050919050565b606081518351146108c8576040517f08c379a00000000000000000000000000000000000000000000000000000000081526004016108bf90612a1a565b60405180910390fd5b6000835167ffffffffffffffff81111561090b577f4e487b7100000000000000000000000000000000000000000000000000000000600052604160045260246000fd5b6040519080825280602002602001820160405280156109395781602001602082028036833780820191505090505b50905060005b8451811015610a28576109d2858281518110610984577f4e487b7100000000000000000000000000000000000000000000000000000000600052603260045260246000fd5b60200260200101518583815181106109c5577f4e487b7100000000000000000000000000000000000000000000000000000000600052603260045260246000fd5b6020026020010151610335565b828281518110610a0b577f4e487b7100000000000000000000000000000000000000000000000000000000600052603260045260246000fd5b60200260200101818152505080610a2190612dfb565b905061093f565b508091505092915050565b60055481565b60088181548110610a4957600080fd5b90600052602060002090600302016000915090508060000160009054906101000a900473ffffffffffffffffffffffffffffffffffffffff1690806001018054610a9290612d98565b80601f0160208091040260200160405190810160405280929190818152602001828054610abe90612d98565b8015610b0b5780601f10610ae057610100808354040283529160200191610b0b565b820191906000526020600020905b815481529060010190602001808311610aee57829003601f168201915b5050505050908060020154905083565b60065481565b610b33610b2c610eca565b8383611441565b5050565b6000600654905090565b6000600160008473ffffffffffffffffffffffffffffffffffffffff1673ffffffffffffffffffffffffffffffffffffffff16815260200190815260200160002060008373ffffffffffffffffffffffffffffffffffffffff1673ffffffffffffffffffffffffffffffffffffffff16815260200190815260200160002060009054906101000a900460ff16905092915050565b610bdd610eca565b73ffffffffffffffffffffffffffffffffffffffff168573ffffffffffffffffffffffffffffffffffffffff161480610c235750610c2285610c1d610eca565b610b41565b5b610c62576040517f08c379a0000000000000000000000000000000000000000000000000000000008152600401610c599061297a565b60405180910390fd5b610c6f85858585856115ae565b5050505050565b60606008805480602002602001604051908101604052809291908181526020016000905b82821015610dbe57838290600052602060002090600302016040518060600160405290816000820160009054906101000a900473ffffffffffffffffffffffffffffffffffffffff1673ffffffffffffffffffffffffffffffffffffffff1673ffffffffffffffffffffffffffffffffffffffff168152602001600182018054610d2390612d98565b80601f0160208091040260200160405190810160405280929190818152602001828054610d4f90612d98565b8015610d9c5780601f10610d7157610100808354040283529160200191610d9c565b820191906000526020600020905b815481529060010190602001808311610d7f57829003601f168201915b5050505050815260200160028201548152505081526020019060010190610c9a565b50505050905090565b610e5d81604051602401610ddb91906128c8565b6040516020818303038152906040527f41304fac000000000000000000000000000000000000000000000000000000007bffffffffffffffffffffffffffffffffffffffffffffffffffffffff19166020820180517bffffffffffffffffffffffffffffffffffffffffffffffffffffffff838183161783525050505061184a565b50565b60007f01ffc9a7000000000000000000000000000000000000000000000000000000007bffffffffffffffffffffffffffffffffffffffffffffffffffffffff1916827bffffffffffffffffffffffffffffffffffffffffffffffffffffffff1916149050919050565b600033905090565b8151835114610f16576040517f08c379a0000000000000000000000000000000000000000000000000000000008152600401610f0d90612a3a565b60405180910390fd5b600073ffffffffffffffffffffffffffffffffffffffff168473ffffffffffffffffffffffffffffffffffffffff161415610f86576040517f08c379a0000000000000000000000000000000000000000000000000000000008152600401610f7d9061299a565b60405180910390fd5b6000610f90610eca565b9050610fa0818787878787611873565b60005b845181101561119d576000858281518110610fe7577f4e487b7100000000000000000000000000000000000000000000000000000000600052603260045260246000fd5b60200260200101519050600085838151811061102c577f4e487b7100000000000000000000000000000000000000000000000000000000600052603260045260246000fd5b60200260200101519050600080600084815260200190815260200160002060008b73ffffffffffffffffffffffffffffffffffffffff1673ffffffffffffffffffffffffffffffffffffffff168152602001908152602001600020549050818110156110cd576040517f08c379a00000000000000000000000000000000000000000000000000000000081526004016110c4906129da565b60405180910390fd5b81810360008085815260200190815260200160002060008c73ffffffffffffffffffffffffffffffffffffffff1673ffffffffffffffffffffffffffffffffffffffff168152602001908152602001600020819055508160008085815260200190815260200160002060008b73ffffffffffffffffffffffffffffffffffffffff1673ffffffffffffffffffffffffffffffffffffffff16815260200190815260200160002060008282546111829190612c58565b925050819055505050508061119690612dfb565b9050610fa3565b508473ffffffffffffffffffffffffffffffffffffffff168673ffffffffffffffffffffffffffffffffffffffff168273ffffffffffffffffffffffffffffffffffffffff167f4a39dc06d4c0dbc64b70af90fd698a233a518aa5d07e595d983b8c0526c8f7fb8787604051611214929190612876565b60405180910390a461122a81878787878761187b565b611238818787878787611883565b505050505050565b600081600001549050919050565b600073ffffffffffffffffffffffffffffffffffffffff168473ffffffffffffffffffffffffffffffffffffffff1614156112be576040517f08c379a00000000000000000000000000000000000000000000000000000000081526004016112b590612a5a565b60405180910390fd5b60006112c8610eca565b905060006112d585611a6a565b905060006112e285611a6a565b90506112f383600089858589611873565b8460008088815260200190815260200160002060008973ffffffffffffffffffffffffffffffffffffffff1673ffffffffffffffffffffffffffffffffffffffff16815260200190815260200160002060008282546113529190612c58565b925050819055508673ffffffffffffffffffffffffffffffffffffffff16600073ffffffffffffffffffffffffffffffffffffffff168473ffffffffffffffffffffffffffffffffffffffff167fc3d58168c5ae7397731d063d5bbf3d657854427343f4c083240f7aacaa2d0f6289896040516113d0929190612a95565b60405180910390a46113e78360008985858961187b565b6113f683600089898989611b30565b50505050505050565b80600460008481526020019081526020016000209080519060200190611426929190611d3a565b505050565b6001816000016000828254019250508190555050565b8173ffffffffffffffffffffffffffffffffffffffff168373ffffffffffffffffffffffffffffffffffffffff1614156114b0576040517f08c379a00000000000000000000000000000000000000000000000000000000081526004016114a7906129fa565b60405180910390fd5b80600160008573ffffffffffffffffffffffffffffffffffffffff1673ffffffffffffffffffffffffffffffffffffffff16815260200190815260200160002060008473ffffffffffffffffffffffffffffffffffffffff1673ffffffffffffffffffffffffffffffffffffffff16815260200190815260200160002060006101000a81548160ff0219169083151502179055508173ffffffffffffffffffffffffffffffffffffffff168373ffffffffffffffffffffffffffffffffffffffff167f17307eab39ab6107e8899845ad3d59bd9653f200f220920489ca2b5937696c31836040516115a191906128ad565b60405180910390a3505050565b600073ffffffffffffffffffffffffffffffffffffffff168473ffffffffffffffffffffffffffffffffffffffff16141561161e576040517f08c379a00000000000000000000000000000000000000000000000000000000081526004016116159061299a565b60405180910390fd5b6000611628610eca565b9050600061163585611a6a565b9050600061164285611a6a565b9050611652838989858589611873565b600080600088815260200190815260200160002060008a73ffffffffffffffffffffffffffffffffffffffff1673ffffffffffffffffffffffffffffffffffffffff168152602001908152602001600020549050858110156116e9576040517f08c379a00000000000000000000000000000000000000000000000000000000081526004016116e0906129da565b60405180910390fd5b85810360008089815260200190815260200160002060008b73ffffffffffffffffffffffffffffffffffffffff1673ffffffffffffffffffffffffffffffffffffffff168152602001908152602001600020819055508560008089815260200190815260200160002060008a73ffffffffffffffffffffffffffffffffffffffff1673ffffffffffffffffffffffffffffffffffffffff168152602001908152602001600020600082825461179e9190612c58565b925050819055508773ffffffffffffffffffffffffffffffffffffffff168973ffffffffffffffffffffffffffffffffffffffff168573ffffffffffffffffffffffffffffffffffffffff167fc3d58168c5ae7397731d063d5bbf3d657854427343f4c083240f7aacaa2d0f628a8a60405161181b929190612a95565b60405180910390a4611831848a8a86868a61187b565b61183f848a8a8a8a8a611b30565b505050505050505050565b60008151905060006a636f6e736f6c652e6c6f679050602083016000808483855afa5050505050565b505050505050565b505050505050565b6118a28473ffffffffffffffffffffffffffffffffffffffff16611d17565b15611a62578373ffffffffffffffffffffffffffffffffffffffff1663bc197c8187878686866040518663ffffffff1660e01b81526004016118e8959493929190612732565b602060405180830381600087803b15801561190257600080fd5b505af192505050801561193357506040513d601f19601f8201168201806040525081019061193091906122d9565b60015b6119d95761193f612ed1565b806308c379a0141561199c5750611954613276565b8061195f575061199e565b806040517f08c379a000000000000000000000000000000000000000000000000000000000815260040161199391906128c8565b60405180910390fd5b505b6040517f08c379a00000000000000000000000000000000000000000000000000000000081526004016119d09061291a565b60405180910390fd5b63bc197c8160e01b7bffffffffffffffffffffffffffffffffffffffffffffffffffffffff1916817bffffffffffffffffffffffffffffffffffffffffffffffffffffffff191614611a60576040517f08c379a0000000000000000000000000000000000000000000000000000000008152600401611a579061293a565b60405180910390fd5b505b505050505050565b60606000600167ffffffffffffffff811115611aaf577f4e487b7100000000000000000000000000000000000000000000000000000000600052604160045260246000fd5b604051908082528060200260200182016040528015611add5781602001602082028036833780820191505090505b5090508281600081518110611b1b577f4e487b7100000000000000000000000000000000000000000000000000000000600052603260045260246000fd5b60200260200101818152505080915050919050565b611b4f8473ffffffffffffffffffffffffffffffffffffffff16611d17565b15611d0f578373ffffffffffffffffffffffffffffffffffffffff1663f23a6e6187878686866040518663ffffffff1660e01b8152600401611b9595949392919061279a565b602060405180830381600087803b158015611baf57600080fd5b505af1925050508015611be057506040513d601f19601f82011682018060405250810190611bdd91906122d9565b60015b611c8657611bec612ed1565b806308c379a01415611c495750611c01613276565b80611c0c5750611c4b565b806040517f08c379a0000000000000000000000000000000000000000000000000000000008152600401611c4091906128c8565b60405180910390fd5b505b6040517f08c379a0000000000000000000000000000000000000000000000000000000008152600401611c7d9061291a565b60405180910390fd5b63f23a6e6160e01b7bffffffffffffffffffffffffffffffffffffffffffffffffffffffff1916817bffffffffffffffffffffffffffffffffffffffffffffffffffffffff191614611d0d576040517f08c379a0000000000000000000000000000000000000000000000000000000008152600401611d049061293a565b60405180910390fd5b505b505050505050565b6000808273ffffffffffffffffffffffffffffffffffffffff163b119050919050565b828054611d4690612d98565b90600052602060002090601f016020900481019282611d685760008555611daf565b82601f10611d8157805160ff1916838001178555611daf565b82800160010185558215611daf579182015b82811115611dae578251825591602001919060010190611d93565b5b509050611dbc9190611dc0565b5090565b5b80821115611dd9576000816000905550600101611dc1565b5090565b6000611df0611deb84612ae3565b612abe565b90508083825260208201905082856020860282011115611e0f57600080fd5b60005b85811015611e3f5781611e258882611f31565b845260208401935060208301925050600181019050611e12565b5050509392505050565b6000611e5c611e5784612b0f565b612abe565b90508083825260208201905082856020860282011115611e7b57600080fd5b60005b85811015611eab5781611e91888261202d565b845260208401935060208301925050600181019050611e7e565b5050509392505050565b6000611ec8611ec384612b3b565b612abe565b905082815260208101848484011115611ee057600080fd5b611eeb848285612d56565b509392505050565b6000611f06611f0184612b6c565b612abe565b905082815260208101848484011115611f1e57600080fd5b611f29848285612d56565b509392505050565b600081359050611f408161330c565b92915050565b600082601f830112611f5757600080fd5b8135611f67848260208601611ddd565b91505092915050565b600082601f830112611f8157600080fd5b8135611f91848260208601611e49565b91505092915050565b600081359050611fa981613323565b92915050565b600081359050611fbe8161333a565b92915050565b600081519050611fd38161333a565b92915050565b600082601f830112611fea57600080fd5b8135611ffa848260208601611eb5565b91505092915050565b600082601f83011261201457600080fd5b8135612024848260208601611ef3565b91505092915050565b60008135905061203c81613351565b92915050565b6000806040838503121561205557600080fd5b600061206385828601611f31565b925050602061207485828601611f31565b9150509250929050565b600080600080600060a0868803121561209657600080fd5b60006120a488828901611f31565b95505060206120b588828901611f31565b945050604086013567ffffffffffffffff8111156120d257600080fd5b6120de88828901611f70565b935050606086013567ffffffffffffffff8111156120fb57600080fd5b61210788828901611f70565b925050608086013567ffffffffffffffff81111561212457600080fd5b61213088828901611fd9565b9150509295509295909350565b600080600080600060a0868803121561215557600080fd5b600061216388828901611f31565b955050602061217488828901611f31565b94505060406121858882890161202d565b93505060606121968882890161202d565b925050608086013567ffffffffffffffff8111156121b357600080fd5b6121bf88828901611fd9565b9150509295509295909350565b600080604083850312156121df57600080fd5b60006121ed85828601611f31565b92505060206121fe85828601611f9a565b9150509250929050565b6000806040838503121561221b57600080fd5b600061222985828601611f31565b925050602061223a8582860161202d565b9150509250929050565b6000806040838503121561225757600080fd5b600083013567ffffffffffffffff81111561227157600080fd5b61227d85828601611f46565b925050602083013567ffffffffffffffff81111561229a57600080fd5b6122a685828601611f70565b9150509250929050565b6000602082840312156122c257600080fd5b60006122d084828501611faf565b91505092915050565b6000602082840312156122eb57600080fd5b60006122f984828501611fc4565b91505092915050565b60006020828403121561231457600080fd5b600082013567ffffffffffffffff81111561232e57600080fd5b61233a84828501612003565b91505092915050565b60006020828403121561235557600080fd5b60006123638482850161202d565b91505092915050565b600061237883836126c4565b905092915050565b600061238c8383612714565b60208301905092915050565b6123a181612ce2565b82525050565b6123b081612ce2565b82525050565b60006123c182612bbd565b6123cb8185612c03565b9350836020820285016123dd85612b9d565b8060005b8581101561241957848403895281516123fa858261236c565b945061240583612be9565b925060208a019950506001810190506123e1565b50829750879550505050505092915050565b600061243682612bc8565b6124408185612c14565b935061244b83612bad565b8060005b8381101561247c5781516124638882612380565b975061246e83612bf6565b92505060018101905061244f565b5085935050505092915050565b61249281612cf4565b82525050565b60006124a382612bd3565b6124ad8185612c25565b93506124bd818560208601612d65565b6124c681612ef3565b840191505092915050565b60006124dc82612bde565b6124e68185612c36565b93506124f6818560208601612d65565b6124ff81612ef3565b840191505092915050565b600061251582612bde565b61251f8185612c47565b935061252f818560208601612d65565b61253881612ef3565b840191505092915050565b6000612550603483612c47565b915061255b82612f11565b604082019050919050565b6000612573602883612c47565b915061257e82612f60565b604082019050919050565b6000612596602b83612c47565b91506125a182612faf565b604082019050919050565b60006125b9602983612c47565b91506125c482612ffe565b604082019050919050565b60006125dc602583612c47565b91506125e78261304d565b604082019050919050565b60006125ff603283612c47565b915061260a8261309c565b604082019050919050565b6000612622602a83612c47565b915061262d826130eb565b604082019050919050565b6000612645602983612c47565b91506126508261313a565b604082019050919050565b6000612668602983612c47565b915061267382613189565b604082019050919050565b600061268b602883612c47565b9150612696826131d8565b604082019050919050565b60006126ae602183612c47565b91506126b982613227565b604082019050919050565b60006060830160008301516126dc6000860182612398565b50602083015184820360208601526126f482826124d1565b91505060408301516127096040860182612714565b508091505092915050565b61271d81612d4c565b82525050565b61272c81612d4c565b82525050565b600060a08201905061274760008301886123a7565b61275460208301876123a7565b8181036040830152612766818661242b565b9050818103606083015261277a818561242b565b9050818103608083015261278e8184612498565b90509695505050505050565b600060a0820190506127af60008301886123a7565b6127bc60208301876123a7565b6127c96040830186612723565b6127d66060830185612723565b81810360808301526127e88184612498565b90509695505050505050565b600060608201905061280960008301866123a7565b818103602083015261281b818561250a565b905061282a6040830184612723565b949350505050565b6000602082019050818103600083015261284c81846123b6565b905092915050565b6000602082019050818103600083015261286e818461242b565b905092915050565b60006040820190508181036000830152612890818561242b565b905081810360208301526128a4818461242b565b90509392505050565b60006020820190506128c26000830184612489565b92915050565b600060208201905081810360008301526128e2818461250a565b905092915050565b60006040820190508181036000830152612904818561250a565b90506129136020830184612723565b9392505050565b6000602082019050818103600083015261293381612543565b9050919050565b6000602082019050818103600083015261295381612566565b9050919050565b6000602082019050818103600083015261297381612589565b9050919050565b60006020820190508181036000830152612993816125ac565b9050919050565b600060208201905081810360008301526129b3816125cf565b9050919050565b600060208201905081810360008301526129d3816125f2565b9050919050565b600060208201905081810360008301526129f381612615565b9050919050565b60006020820190508181036000830152612a1381612638565b9050919050565b60006020820190508181036000830152612a338161265b565b9050919050565b60006020820190508181036000830152612a538161267e565b9050919050565b60006020820190508181036000830152612a73816126a1565b9050919050565b6000602082019050612a8f6000830184612723565b92915050565b6000604082019050612aaa6000830185612723565b612ab76020830184612723565b9392505050565b6000612ac8612ad9565b9050612ad48282612dca565b919050565b6000604051905090565b600067ffffffffffffffff821115612afe57612afd612ea2565b5b602082029050602081019050919050565b600067ffffffffffffffff821115612b2a57612b29612ea2565b5b602082029050602081019050919050565b600067ffffffffffffffff821115612b5657612b55612ea2565b5b612b5f82612ef3565b9050602081019050919050565b600067ffffffffffffffff821115612b8757612b86612ea2565b5b612b9082612ef3565b9050602081019050919050565b6000819050602082019050919050565b6000819050602082019050919050565b600081519050919050565b600081519050919050565b600081519050919050565b600081519050919050565b6000602082019050919050565b6000602082019050919050565b600082825260208201905092915050565b600082825260208201905092915050565b600082825260208201905092915050565b600082825260208201905092915050565b600082825260208201905092915050565b6000612c6382612d4c565b9150612c6e83612d4c565b9250827fffffffffffffffffffffffffffffffffffffffffffffffffffffffffffffffff03821115612ca357612ca2612e44565b5b828201905092915050565b6000612cb982612d4c565b9150612cc483612d4c565b925082821015612cd757612cd6612e44565b5b828203905092915050565b6000612ced82612d2c565b9050919050565b60008115159050919050565b60007fffffffff0000000000000000000000000000000000000000000000000000000082169050919050565b600073ffffffffffffffffffffffffffffffffffffffff82169050919050565b6000819050919050565b82818337600083830152505050565b60005b83811015612d83578082015181840152602081019050612d68565b83811115612d92576000848401525b50505050565b60006002820490506001821680612db057607f821691505b60208210811415612dc457612dc3612e73565b5b50919050565b612dd382612ef3565b810181811067ffffffffffffffff82111715612df257612df1612ea2565b5b80604052505050565b6000612e0682612d4c565b91507fffffffffffffffffffffffffffffffffffffffffffffffffffffffffffffffff821415612e3957612e38612e44565b5b600182019050919050565b7f4e487b7100000000000000000000000000000000000000000000000000000000600052601160045260246000fd5b7f4e487b7100000000000000000000000000000000000000000000000000000000600052602260045260246000fd5b7f4e487b7100000000000000000000000000000000000000000000000000000000600052604160045260246000fd5b600060033d1115612ef05760046000803e612eed600051612f04565b90505b90565b6000601f19601f8301169050919050565b60008160e01c9050919050565b7f455243313135353a207472616e7366657220746f206e6f6e204552433131353560008201527f526563656976657220696d706c656d656e746572000000000000000000000000602082015250565b7f455243313135353a204552433131353552656365697665722072656a6563746560008201527f6420746f6b656e73000000000000000000000000000000000000000000000000602082015250565b7f455243313135353a2062616c616e636520717565727920666f7220746865207a60008201527f65726f2061646472657373000000000000000000000000000000000000000000602082015250565b7f455243313135353a2063616c6c6572206973206e6f74206f776e6572206e6f7260008201527f20617070726f7665640000000000000000000000000000000000000000000000602082015250565b7f455243313135353a207472616e7366657220746f20746865207a65726f20616460008201527f6472657373000000000000000000000000000000000000000000000000000000602082015250565b7f455243313135353a207472616e736665722063616c6c6572206973206e6f742060008201527f6f776e6572206e6f7220617070726f7665640000000000000000000000000000602082015250565b7f455243313135353a20696e73756666696369656e742062616c616e636520666f60008201527f72207472616e7366657200000000000000000000000000000000000000000000602082015250565b7f455243313135353a2073657474696e6720617070726f76616c2073746174757360008201527f20666f722073656c660000000000000000000000000000000000000000000000602082015250565b7f455243313135353a206163636f756e747320616e6420696473206c656e67746860008201527f206d69736d617463680000000000000000000000000000000000000000000000602082015250565b7f455243313135353a2069647320616e6420616d6f756e7473206c656e6774682060008201527f6d69736d61746368000000000000000000000000000000000000000000000000602082015250565b7f455243313135353a206d696e7420746f20746865207a65726f2061646472657360008201527f7300000000000000000000000000000000000000000000000000000000000000602082015250565b600060443d101561328657613309565b61328e612ad9565b60043d036004823e80513d602482011167ffffffffffffffff821117156132b6575050613309565b808201805167ffffffffffffffff8111156132d45750505050613309565b80602083010160043d0385018111156132f1575050505050613309565b61330082602001850186612dca565b82955050505050505b90565b61331581612ce2565b811461332057600080fd5b50565b61332c81612cf4565b811461333757600080fd5b50565b61334381612d00565b811461334e57600080fd5b50565b61335a81612d4c565b811461336557600080fd5b5056fea2646970667358221220eb0c0096322919dcb5483e5653449fc847ec38f7aba6d7f660f02ba7e3879f7964736f6c63430008040033",
  "linkReferences": {},
  "deployedLinkReferences": {}
}