{
  "_format": "hh-sol-artifact-1",
  "contractName": "FilGoodNFT721",
  "sourceName": "contracts/FilGoodNFT721.sol",
  "abi": [
    {
      "inputs": [],
      "stateMutability": "nonpayable",
      "type": "constructor"
    },
    {
      "anonymous": false,
      "inputs": [
        {
          "indexed": true,
          "internalType": "address",
          "name": "owner",
          "type": "address"
        },
        {
          "indexed": true,
          "internalType": "address",
          "name": "approved",
          "type": "address"
        },
        {
          "indexed": true,
          "internalType": "uint256",
          "name": "tokenId",
          "type": "uint256"
        }
      ],
      "name": "Approval",
      "type": "event"
    },
    {
      "anonymous": false,
      "inputs": [
        {
          "indexed": true,
          "internalType": "address",
          "name": "owner",
          "type": "address"
        },
        {
          "indexed": true,
          "internalType": "address",
          "name": "operator",
          "type": "address"
        },
        {
          "indexed": false,
          "internalType": "bool",
          "name": "approved",
          "type": "bool"
        }
      ],
      "name": "ApprovalForAll",
      "type": "event"
    },
    {
      "anonymous": false,
      "inputs": [
        {
          "indexed": false,
          "internalType": "address",
          "name": "sender",
          "type": "address"
        },
        {
          "indexed": false,
          "internalType": "uint256",
          "name": "tokenId",
          "type": "uint256"
        },
        {
          "indexed": false,
          "internalType": "string",
          "name": "tokenURI",
          "type": "string"
        },
        {
          "indexed": false,
          "internalType": "uint256",
          "name": "remainingMintableNFTs",
          "type": "uint256"
        }
      ],
      "name": "NewFilGoodNFTMinted",
      "type": "event"
    },
    {
      "anonymous": false,
      "inputs": [
        {
          "indexed": true,
          "internalType": "address",
          "name": "from",
          "type": "address"
        },
        {
          "indexed": true,
          "internalType": "address",
          "name": "to",
          "type": "address"
        },
        {
          "indexed": true,
          "internalType": "uint256",
          "name": "tokenId",
          "type": "uint256"
        }
      ],
      "name": "Transfer",
      "type": "event"
    },
    {
      "inputs": [
        {
          "internalType": "address",
          "name": "to",
          "type": "address"
        },
        {
          "internalType": "uint256",
          "name": "tokenId",
          "type": "uint256"
        }
      ],
      "name": "approve",
      "outputs": [],
      "stateMutability": "nonpayable",
      "type": "function"
    },
    {
      "inputs": [
        {
          "internalType": "address",
          "name": "owner",
          "type": "address"
        }
      ],
      "name": "balanceOf",
      "outputs": [
        {
          "internalType": "uint256",
          "name": "",
          "type": "uint256"
        }
      ],
      "stateMutability": "view",
      "type": "function"
    },
    {
      "inputs": [
        {
          "internalType": "uint256",
          "name": "tokenId",
          "type": "uint256"
        }
      ],
      "name": "getApproved",
      "outputs": [
        {
          "internalType": "address",
          "name": "",
          "type": "address"
        }
      ],
      "stateMutability": "view",
      "type": "function"
    },
    {
      "inputs": [],
      "name": "getNFTCollection",
      "outputs": [
        {
          "components": [
            {
              "internalType": "address",
              "name": "owner",
              "type": "address"
            },
            {
              "internalType": "string",
              "name": "tokenURI",
              "type": "string"
            },
            {
              "internalType": "uint256",
              "name": "tokenId",
              "type": "uint256"
            }
          ],
          "internalType": "struct FilGoodNFT721.myNFT[]",
          "name": "",
          "type": "tuple[]"
        }
      ],
      "stateMutability": "view",
      "type": "function"
    },
    {
      "inputs": [],
      "name": "getRemainingMintableNFTs",
      "outputs": [
        {
          "internalType": "uint256",
          "name": "",
          "type": "uint256"
        }
      ],
      "stateMutability": "view",
      "type": "function"
    },
    {
      "inputs": [
        {
          "internalType": "address",
          "name": "owner",
          "type": "address"
        },
        {
          "internalType": "address",
          "name": "operator",
          "type": "address"
        }
      ],
      "name": "isApprovedForAll",
      "outputs": [
        {
          "internalType": "bool",
          "name": "",
          "type": "bool"
        }
      ],
      "stateMutability": "view",
      "type": "function"
    },
    {
      "inputs": [],
      "name": "maxNFTs",
      "outputs": [
        {
          "internalType": "uint256",
          "name": "",
          "type": "uint256"
        }
      ],
      "stateMutability": "view",
      "type": "function"
    },
    {
      "inputs": [
        {
          "internalType": "string",
          "name": "ipfsURI",
          "type": "string"
        }
      ],
      "name": "mintMyNFT",
      "outputs": [],
      "stateMutability": "nonpayable",
      "type": "function"
    },
    {
      "inputs": [],
      "name": "name",
      "outputs": [
        {
          "internalType": "string",
          "name": "",
          "type": "string"
        }
      ],
      "stateMutability": "view",
      "type": "function"
    },
    {
      "inputs": [
        {
          "internalType": "uint256",
          "name": "",
          "type": "uint256"
        }
      ],
      "name": "nftCollection",
      "outputs": [
        {
          "internalType": "address",
          "name": "owner",
          "type": "address"
        },
        {
          "internalType": "string",
          "name": "tokenURI",
          "type": "string"
        },
        {
          "internalType": "uint256",
          "name": "tokenId",
          "type": "uint256"
        }
      ],
      "stateMutability": "view",
      "type": "function"
    },
    {
      "inputs": [
        {
          "internalType": "uint256",
          "name": "tokenId",
          "type": "uint256"
        }
      ],
      "name": "ownerOf",
      "outputs": [
        {
          "internalType": "address",
          "name": "",
          "type": "address"
        }
      ],
      "stateMutability": "view",
      "type": "function"
    },
    {
      "inputs": [],
      "name": "remainingMintableNFTs",
      "outputs": [
        {
          "internalType": "uint256",
          "name": "",
          "type": "uint256"
        }
      ],
      "stateMutability": "view",
      "type": "function"
    },
    {
      "inputs": [
        {
          "internalType": "address",
          "name": "from",
          "type": "address"
        },
        {
          "internalType": "address",
          "name": "to",
          "type": "address"
        },
        {
          "internalType": "uint256",
          "name": "tokenId",
          "type": "uint256"
        }
      ],
      "name": "safeTransferFrom",
      "outputs": [],
      "stateMutability": "nonpayable",
      "type": "function"
    },
    {
      "inputs": [
        {
          "internalType": "address",
          "name": "from",
          "type": "address"
        },
        {
          "internalType": "address",
          "name": "to",
          "type": "address"
        },
        {
          "internalType": "uint256",
          "name": "tokenId",
          "type": "uint256"
        },
        {
          "internalType": "bytes",
          "name": "_data",
          "type": "bytes"
        }
      ],
      "name": "safeTransferFrom",
      "outputs": [],
      "stateMutability": "nonpayable",
      "type": "function"
    },
    {
      "inputs": [
        {
          "internalType": "address",
          "name": "operator",
          "type": "address"
        },
        {
          "internalType": "bool",
          "name": "approved",
          "type": "bool"
        }
      ],
      "name": "setApprovalForAll",
      "outputs": [],
      "stateMutability": "nonpayable",
      "type": "function"
    },
    {
      "inputs": [
        {
          "internalType": "bytes4",
          "name": "interfaceId",
          "type": "bytes4"
        }
      ],
      "name": "supportsInterface",
      "outputs": [
        {
          "internalType": "bool",
          "name": "",
          "type": "bool"
        }
      ],
      "stateMutability": "view",
      "type": "function"
    },
    {
      "inputs": [],
      "name": "symbol",
      "outputs": [
        {
          "internalType": "string",
          "name": "",
          "type": "string"
        }
      ],
      "stateMutability": "view",
      "type": "function"
    },
    {
      "inputs": [
        {
          "internalType": "uint256",
          "name": "tokenId",
          "type": "uint256"
        }
      ],
      "name": "tokenURI",
      "outputs": [
        {
          "internalType": "string",
          "name": "",
          "type": "string"
        }
      ],
      "stateMutability": "view",
      "type": "function"
    },
    {
      "inputs": [
        {
          "internalType": "address",
          "name": "from",
          "type": "address"
        },
        {
          "internalType": "address",
          "name": "to",
          "type": "address"
        },
        {
          "internalType": "uint256",
          "name": "tokenId",
          "type": "uint256"
        }
      ],
      "name": "transferFrom",
      "outputs": [],
      "stateMutability": "nonpayable",
      "type": "function"
    }
  ],
  "bytecode": "0x60806040523480156200001157600080fd5b506040518060400160405280601581526020017f457468476c6f62616c204e46544861636b3230323200000000000000000000008152506040518060400160405280601581526020017f46696c65636f696e2053746172746572204e4654730000000000000000000000815250816000908051906020019062000096929190620001d7565b508060019080519060200190620000af929190620001d7565b505050620000fd6040518060400160405280601e81526020017f54686973206973206d7920455243373231204e465420636f6e747261637400008152506200010b60201b62000f7d1760201c565b6064600881905550620003b4565b620001ab81604051602401620001229190620002c8565b6040516020818303038152906040527f41304fac000000000000000000000000000000000000000000000000000000007bffffffffffffffffffffffffffffffffffffffffffffffffffffffff19166020820180517bffffffffffffffffffffffffffffffffffffffffffffffffffffffff8381831617835250505050620001ae60201b60201c565b50565b60008151905060006a636f6e736f6c652e6c6f679050602083016000808483855afa5050505050565b828054620001e5906200033e565b90600052602060002090601f01602090048101928262000209576000855562000255565b82601f106200022457805160ff191683800117855562000255565b8280016001018555821562000255579182015b828111156200025457825182559160200191906001019062000237565b5b50905062000264919062000268565b5090565b5b808211156200028357600081600090555060010162000269565b5090565b60006200029482620002ec565b620002a08185620002f7565b9350620002b281856020860162000308565b620002bd81620003a3565b840191505092915050565b60006020820190508181036000830152620002e4818462000287565b905092915050565b600081519050919050565b600082825260208201905092915050565b60005b83811015620003285780820151818401526020810190506200030b565b8381111562000338576000848401525b50505050565b600060028204905060018216806200035757607f821691505b602082108114156200036e576200036d62000374565b5b50919050565b7f4e487b7100000000000000000000000000000000000000000000000000000000600052602260045260246000fd5b6000601f19601f8301169050919050565b61333b80620003c46000396000f3fe608060405234801561001057600080fd5b50600436106101215760003560e01c806370a08231116100ad578063b88d4fde11610071578063b88d4fde1461031c578063c298de7e14610338578063c87b56dd14610356578063e985e9c514610386578063fedea023146103b657610121565b806370a08231146102625780637c711b2714610292578063911fd8eb146102c457806395d89b41146102e2578063a22cb4651461030057610121565b806323b872dd116100f457806323b872dd146101c057806338d64576146101dc57806342842e0e146101f85780634e9e1ec6146102145780636352211e1461023257610121565b806301ffc9a71461012657806306fdde0314610156578063081812fc14610174578063095ea7b3146101a4575b600080fd5b610140600480360381019061013b9190612181565b6103d4565b60405161014d91906127a4565b60405180910390f35b61015e6104b6565b60405161016b91906127bf565b60405180910390f35b61018e60048036038101906101899190612214565b610548565b60405161019b9190612691565b60405180910390f35b6101be60048036038101906101b99190612145565b6105cd565b005b6101da60048036038101906101d5919061203f565b6106e5565b005b6101f660048036038101906101f191906121d3565b610745565b005b610212600480360381019061020d919061203f565b6108ba565b005b61021c6108da565b60405161022991906129e1565b60405180910390f35b61024c60048036038101906102479190612214565b6108e0565b6040516102599190612691565b60405180910390f35b61027c60048036038101906102779190611fda565b610992565b60405161028991906129e1565b60405180910390f35b6102ac60048036038101906102a79190612214565b610a4a565b6040516102bb939291906126f8565b60405180910390f35b6102cc610b2c565b6040516102d991906129e1565b60405180910390f35b6102ea610b32565b6040516102f791906127bf565b60405180910390f35b61031a60048036038101906103159190612109565b610bc4565b005b6103366004803603810190610331919061208e565b610bda565b005b610340610c3c565b60405161034d91906129e1565b60405180910390f35b610370600480360381019061036b9190612214565b610c46565b60405161037d91906127bf565b60405180910390f35b6103a0600480360381019061039b9190612003565b610d98565b6040516103ad91906127a4565b60405180910390f35b6103be610e2c565b6040516103cb9190612782565b60405180910390f35b60007f80ac58cd000000000000000000000000000000000000000000000000000000007bffffffffffffffffffffffffffffffffffffffffffffffffffffffff1916827bffffffffffffffffffffffffffffffffffffffffffffffffffffffff1916148061049f57507f5b5e139f000000000000000000000000000000000000000000000000000000007bffffffffffffffffffffffffffffffffffffffffffffffffffffffff1916827bffffffffffffffffffffffffffffffffffffffffffffffffffffffff1916145b806104af57506104ae82611016565b5b9050919050565b6060600080546104c590612c81565b80601f01602080910402602001604051908101604052809291908181526020018280546104f190612c81565b801561053e5780601f106105135761010080835404028352916020019161053e565b820191906000526020600020905b81548152906001019060200180831161052157829003601f168201915b5050505050905090565b600061055382611080565b610592576040517f08c379a000000000000000000000000000000000000000000000000000000000815260040161058990612961565b60405180910390fd5b6004600083815260200190815260200160002060009054906101000a900473ffffffffffffffffffffffffffffffffffffffff169050919050565b60006105d8826108e0565b90508073ffffffffffffffffffffffffffffffffffffffff168373ffffffffffffffffffffffffffffffffffffffff161415610649576040517f08c379a0000000000000000000000000000000000000000000000000000000008152600401610640906129a1565b60405180910390fd5b8073ffffffffffffffffffffffffffffffffffffffff166106686110ec565b73ffffffffffffffffffffffffffffffffffffffff1614806106975750610696816106916110ec565b610d98565b5b6106d6576040517f08c379a00000000000000000000000000000000000000000000000000000000081526004016106cd906128a1565b60405180910390fd5b6106e083836110f4565b505050565b6106f66106f06110ec565b826111ad565b610735576040517f08c379a000000000000000000000000000000000000000000000000000000000815260040161072c906129c1565b60405180910390fd5b61074083838361128b565b505050565b60085461075260076114f2565b1061075c57600080fd5b600061076860076114f2565b9050600060405180606001604052803373ffffffffffffffffffffffffffffffffffffffff1681526020018481526020018381525090506107a93383611500565b6107b3828461151e565b6107bd6007611592565b6107c760076114f2565b6008546107d49190612b97565b600981905550600a81908060018154018082558091505060019003906000526020600020906003020160009091909190915060008201518160000160006101000a81548173ffffffffffffffffffffffffffffffffffffffff021916908373ffffffffffffffffffffffffffffffffffffffff1602179055506020820151816001019080519060200190610869929190611dfe565b506040820151816002015550507f79791877b69bd5d876524dcc51d3960d703b55b782691a60d7df02ab86466eaf3383856009546040516108ad9493929190612736565b60405180910390a1505050565b6108d583838360405180602001604052806000815250610bda565b505050565b60085481565b6000806002600084815260200190815260200160002060009054906101000a900473ffffffffffffffffffffffffffffffffffffffff169050600073ffffffffffffffffffffffffffffffffffffffff168173ffffffffffffffffffffffffffffffffffffffff161415610989576040517f08c379a0000000000000000000000000000000000000000000000000000000008152600401610980906128e1565b60405180910390fd5b80915050919050565b60008073ffffffffffffffffffffffffffffffffffffffff168273ffffffffffffffffffffffffffffffffffffffff161415610a03576040517f08c379a00000000000000000000000000000000000000000000000000000000081526004016109fa906128c1565b60405180910390fd5b600360008373ffffffffffffffffffffffffffffffffffffffff1673ffffffffffffffffffffffffffffffffffffffff168152602001908152602001600020549050919050565b600a8181548110610a5a57600080fd5b90600052602060002090600302016000915090508060000160009054906101000a900473ffffffffffffffffffffffffffffffffffffffff1690806001018054610aa390612c81565b80601f0160208091040260200160405190810160405280929190818152602001828054610acf90612c81565b8015610b1c5780601f10610af157610100808354040283529160200191610b1c565b820191906000526020600020905b815481529060010190602001808311610aff57829003601f168201915b5050505050908060020154905083565b60095481565b606060018054610b4190612c81565b80601f0160208091040260200160405190810160405280929190818152602001828054610b6d90612c81565b8015610bba5780601f10610b8f57610100808354040283529160200191610bba565b820191906000526020600020905b815481529060010190602001808311610b9d57829003601f168201915b5050505050905090565b610bd6610bcf6110ec565b83836115a8565b5050565b610beb610be56110ec565b836111ad565b610c2a576040517f08c379a0000000000000000000000000000000000000000000000000000000008152600401610c21906129c1565b60405180910390fd5b610c3684848484611715565b50505050565b6000600954905090565b6060610c5182611080565b610c90576040517f08c379a0000000000000000000000000000000000000000000000000000000008152600401610c8790612941565b60405180910390fd5b6000600660008481526020019081526020016000208054610cb090612c81565b80601f0160208091040260200160405190810160405280929190818152602001828054610cdc90612c81565b8015610d295780601f10610cfe57610100808354040283529160200191610d29565b820191906000526020600020905b815481529060010190602001808311610d0c57829003601f168201915b505050505090506000610d3a611771565b9050600081511415610d50578192505050610d93565b600082511115610d85578082604051602001610d6d92919061266d565b60405160208183030381529060405292505050610d93565b610d8e84611788565b925050505b919050565b6000600560008473ffffffffffffffffffffffffffffffffffffffff1673ffffffffffffffffffffffffffffffffffffffff16815260200190815260200160002060008373ffffffffffffffffffffffffffffffffffffffff1673ffffffffffffffffffffffffffffffffffffffff16815260200190815260200160002060009054906101000a900460ff16905092915050565b6060600a805480602002602001604051908101604052809291908181526020016000905b82821015610f7457838290600052602060002090600302016040518060600160405290816000820160009054906101000a900473ffffffffffffffffffffffffffffffffffffffff1673ffffffffffffffffffffffffffffffffffffffff1673ffffffffffffffffffffffffffffffffffffffff168152602001600182018054610ed990612c81565b80601f0160208091040260200160405190810160405280929190818152602001828054610f0590612c81565b8015610f525780601f10610f2757610100808354040283529160200191610f52565b820191906000526020600020905b815481529060010190602001808311610f3557829003601f168201915b5050505050815260200160028201548152505081526020019060010190610e50565b50505050905090565b61101381604051602401610f9191906127bf565b6040516020818303038152906040527f41304fac000000000000000000000000000000000000000000000000000000007bffffffffffffffffffffffffffffffffffffffffffffffffffffffff19166020820180517bffffffffffffffffffffffffffffffffffffffffffffffffffffffff838183161783525050505061182f565b50565b60007f01ffc9a7000000000000000000000000000000000000000000000000000000007bffffffffffffffffffffffffffffffffffffffffffffffffffffffff1916827bffffffffffffffffffffffffffffffffffffffffffffffffffffffff1916149050919050565b60008073ffffffffffffffffffffffffffffffffffffffff166002600084815260200190815260200160002060009054906101000a900473ffffffffffffffffffffffffffffffffffffffff1673ffffffffffffffffffffffffffffffffffffffff1614159050919050565b600033905090565b816004600083815260200190815260200160002060006101000a81548173ffffffffffffffffffffffffffffffffffffffff021916908373ffffffffffffffffffffffffffffffffffffffff160217905550808273ffffffffffffffffffffffffffffffffffffffff16611167836108e0565b73ffffffffffffffffffffffffffffffffffffffff167f8c5be1e5ebec7d5bd14f71427d1e84f3dd0314c0f7b2291e5b200ac8c7c3b92560405160405180910390a45050565b60006111b882611080565b6111f7576040517f08c379a00000000000000000000000000000000000000000000000000000000081526004016111ee90612881565b60405180910390fd5b6000611202836108e0565b90508073ffffffffffffffffffffffffffffffffffffffff168473ffffffffffffffffffffffffffffffffffffffff16148061124457506112438185610d98565b5b8061128257508373ffffffffffffffffffffffffffffffffffffffff1661126a84610548565b73ffffffffffffffffffffffffffffffffffffffff16145b91505092915050565b8273ffffffffffffffffffffffffffffffffffffffff166112ab826108e0565b73ffffffffffffffffffffffffffffffffffffffff1614611301576040517f08c379a00000000000000000000000000000000000000000000000000000000081526004016112f890612801565b60405180910390fd5b600073ffffffffffffffffffffffffffffffffffffffff168273ffffffffffffffffffffffffffffffffffffffff161415611371576040517f08c379a000000000000000000000000000000000000000000000000000000000815260040161136890612841565b60405180910390fd5b61137c838383611858565b6113876000826110f4565b6001600360008573ffffffffffffffffffffffffffffffffffffffff1673ffffffffffffffffffffffffffffffffffffffff16815260200190815260200160002060008282546113d79190612b97565b925050819055506001600360008473ffffffffffffffffffffffffffffffffffffffff1673ffffffffffffffffffffffffffffffffffffffff168152602001908152602001600020600082825461142e9190612b10565b92505081905550816002600083815260200190815260200160002060006101000a81548173ffffffffffffffffffffffffffffffffffffffff021916908373ffffffffffffffffffffffffffffffffffffffff160217905550808273ffffffffffffffffffffffffffffffffffffffff168473ffffffffffffffffffffffffffffffffffffffff167fddf252ad1be2c89b69c2b068fc378daa952ba7f163c4a11628f55a4df523b3ef60405160405180910390a46114ed83838361185d565b505050565b600081600001549050919050565b61151a828260405180602001604052806000815250611862565b5050565b61152782611080565b611566576040517f08c379a000000000000000000000000000000000000000000000000000000000815260040161155d90612901565b60405180910390fd5b8060066000848152602001908152602001600020908051906020019061158d929190611dfe565b505050565b6001816000016000828254019250508190555050565b8173ffffffffffffffffffffffffffffffffffffffff168373ffffffffffffffffffffffffffffffffffffffff161415611617576040517f08c379a000000000000000000000000000000000000000000000000000000000815260040161160e90612861565b60405180910390fd5b80600560008573ffffffffffffffffffffffffffffffffffffffff1673ffffffffffffffffffffffffffffffffffffffff16815260200190815260200160002060008473ffffffffffffffffffffffffffffffffffffffff1673ffffffffffffffffffffffffffffffffffffffff16815260200190815260200160002060006101000a81548160ff0219169083151502179055508173ffffffffffffffffffffffffffffffffffffffff168373ffffffffffffffffffffffffffffffffffffffff167f17307eab39ab6107e8899845ad3d59bd9653f200f220920489ca2b5937696c318360405161170891906127a4565b60405180910390a3505050565b61172084848461128b565b61172c848484846118bd565b61176b576040517f08c379a0000000000000000000000000000000000000000000000000000000008152600401611762906127e1565b60405180910390fd5b50505050565b606060405180602001604052806000815250905090565b606061179382611080565b6117d2576040517f08c379a00000000000000000000000000000000000000000000000000000000081526004016117c990612981565b60405180910390fd5b60006117dc611771565b905060008151116117fc5760405180602001604052806000815250611827565b8061180684611a54565b60405160200161181792919061266d565b6040516020818303038152906040525b915050919050565b60008151905060006a636f6e736f6c652e6c6f679050602083016000808483855afa5050505050565b505050565b505050565b61186c8383611c01565b61187960008484846118bd565b6118b8576040517f08c379a00000000000000000000000000000000000000000000000000000000081526004016118af906127e1565b60405180910390fd5b505050565b60006118de8473ffffffffffffffffffffffffffffffffffffffff16611ddb565b15611a47578373ffffffffffffffffffffffffffffffffffffffff1663150b7a026119076110ec565b8786866040518563ffffffff1660e01b815260040161192994939291906126ac565b602060405180830381600087803b15801561194357600080fd5b505af192505050801561197457506040513d601f19601f8201168201806040525081019061197191906121aa565b60015b6119f7573d80600081146119a4576040519150601f19603f3d011682016040523d82523d6000602084013e6119a9565b606091505b506000815114156119ef576040517f08c379a00000000000000000000000000000000000000000000000000000000081526004016119e6906127e1565b60405180910390fd5b805181602001fd5b63150b7a0260e01b7bffffffffffffffffffffffffffffffffffffffffffffffffffffffff1916817bffffffffffffffffffffffffffffffffffffffffffffffffffffffff191614915050611a4c565b600190505b949350505050565b60606000821415611a9c576040518060400160405280600181526020017f30000000000000000000000000000000000000000000000000000000000000008152509050611bfc565b600082905060005b60008214611ace578080611ab790612ce4565b915050600a82611ac79190612b66565b9150611aa4565b60008167ffffffffffffffff811115611b10577f4e487b7100000000000000000000000000000000000000000000000000000000600052604160045260246000fd5b6040519080825280601f01601f191660200182016040528015611b425781602001600182028036833780820191505090505b5090505b60008514611bf557600182611b5b9190612b97565b9150600a85611b6a9190612d2d565b6030611b769190612b10565b60f81b818381518110611bb2577f4e487b7100000000000000000000000000000000000000000000000000000000600052603260045260246000fd5b60200101907effffffffffffffffffffffffffffffffffffffffffffffffffffffffffffff1916908160001a905350600a85611bee9190612b66565b9450611b46565b8093505050505b919050565b600073ffffffffffffffffffffffffffffffffffffffff168273ffffffffffffffffffffffffffffffffffffffff161415611c71576040517f08c379a0000000000000000000000000000000000000000000000000000000008152600401611c6890612921565b60405180910390fd5b611c7a81611080565b15611cba576040517f08c379a0000000000000000000000000000000000000000000000000000000008152600401611cb190612821565b60405180910390fd5b611cc660008383611858565b6001600360008473ffffffffffffffffffffffffffffffffffffffff1673ffffffffffffffffffffffffffffffffffffffff1681526020019081526020016000206000828254611d169190612b10565b92505081905550816002600083815260200190815260200160002060006101000a81548173ffffffffffffffffffffffffffffffffffffffff021916908373ffffffffffffffffffffffffffffffffffffffff160217905550808273ffffffffffffffffffffffffffffffffffffffff16600073ffffffffffffffffffffffffffffffffffffffff167fddf252ad1be2c89b69c2b068fc378daa952ba7f163c4a11628f55a4df523b3ef60405160405180910390a4611dd76000838361185d565b5050565b6000808273ffffffffffffffffffffffffffffffffffffffff163b119050919050565b828054611e0a90612c81565b90600052602060002090601f016020900481019282611e2c5760008555611e73565b82601f10611e4557805160ff1916838001178555611e73565b82800160010185558215611e73579182015b82811115611e72578251825591602001919060010190611e57565b5b509050611e809190611e84565b5090565b5b80821115611e9d576000816000905550600101611e85565b5090565b6000611eb4611eaf84612a21565b6129fc565b905082815260208101848484011115611ecc57600080fd5b611ed7848285612c3f565b509392505050565b6000611ef2611eed84612a52565b6129fc565b905082815260208101848484011115611f0a57600080fd5b611f15848285612c3f565b509392505050565b600081359050611f2c816132a9565b92915050565b600081359050611f41816132c0565b92915050565b600081359050611f56816132d7565b92915050565b600081519050611f6b816132d7565b92915050565b600082601f830112611f8257600080fd5b8135611f92848260208601611ea1565b91505092915050565b600082601f830112611fac57600080fd5b8135611fbc848260208601611edf565b91505092915050565b600081359050611fd4816132ee565b92915050565b600060208284031215611fec57600080fd5b6000611ffa84828501611f1d565b91505092915050565b6000806040838503121561201657600080fd5b600061202485828601611f1d565b925050602061203585828601611f1d565b9150509250929050565b60008060006060848603121561205457600080fd5b600061206286828701611f1d565b935050602061207386828701611f1d565b925050604061208486828701611fc5565b9150509250925092565b600080600080608085870312156120a457600080fd5b60006120b287828801611f1d565b94505060206120c387828801611f1d565b93505060406120d487828801611fc5565b925050606085013567ffffffffffffffff8111156120f157600080fd5b6120fd87828801611f71565b91505092959194509250565b6000806040838503121561211c57600080fd5b600061212a85828601611f1d565b925050602061213b85828601611f32565b9150509250929050565b6000806040838503121561215857600080fd5b600061216685828601611f1d565b925050602061217785828601611fc5565b9150509250929050565b60006020828403121561219357600080fd5b60006121a184828501611f47565b91505092915050565b6000602082840312156121bc57600080fd5b60006121ca84828501611f5c565b91505092915050565b6000602082840312156121e557600080fd5b600082013567ffffffffffffffff8111156121ff57600080fd5b61220b84828501611f9b565b91505092915050565b60006020828403121561222657600080fd5b600061223484828501611fc5565b91505092915050565b600061224983836125ff565b905092915050565b61225a81612bcb565b82525050565b61226981612bcb565b82525050565b600061227a82612a93565b6122848185612ac1565b93508360208202850161229685612a83565b8060005b858110156122d257848403895281516122b3858261223d565b94506122be83612ab4565b925060208a0199505060018101905061229a565b50829750879550505050505092915050565b6122ed81612bdd565b82525050565b60006122fe82612a9e565b6123088185612ad2565b9350612318818560208601612c4e565b61232181612e1a565b840191505092915050565b600061233782612aa9565b6123418185612ae3565b9350612351818560208601612c4e565b61235a81612e1a565b840191505092915050565b600061237082612aa9565b61237a8185612af4565b935061238a818560208601612c4e565b61239381612e1a565b840191505092915050565b60006123a982612aa9565b6123b38185612b05565b93506123c3818560208601612c4e565b80840191505092915050565b60006123dc603283612af4565b91506123e782612e2b565b604082019050919050565b60006123ff602583612af4565b915061240a82612e7a565b604082019050919050565b6000612422601c83612af4565b915061242d82612ec9565b602082019050919050565b6000612445602483612af4565b915061245082612ef2565b604082019050919050565b6000612468601983612af4565b915061247382612f41565b602082019050919050565b600061248b602c83612af4565b915061249682612f6a565b604082019050919050565b60006124ae603883612af4565b91506124b982612fb9565b604082019050919050565b60006124d1602a83612af4565b91506124dc82613008565b604082019050919050565b60006124f4602983612af4565b91506124ff82613057565b604082019050919050565b6000612517602e83612af4565b9150612522826130a6565b604082019050919050565b600061253a602083612af4565b9150612545826130f5565b602082019050919050565b600061255d603183612af4565b91506125688261311e565b604082019050919050565b6000612580602c83612af4565b915061258b8261316d565b604082019050919050565b60006125a3602f83612af4565b91506125ae826131bc565b604082019050919050565b60006125c6602183612af4565b91506125d18261320b565b604082019050919050565b60006125e9603183612af4565b91506125f48261325a565b604082019050919050565b60006060830160008301516126176000860182612251565b506020830151848203602086015261262f828261232c565b9150506040830151612644604086018261264f565b508091505092915050565b61265881612c35565b82525050565b61266781612c35565b82525050565b6000612679828561239e565b9150612685828461239e565b91508190509392505050565b60006020820190506126a66000830184612260565b92915050565b60006080820190506126c16000830187612260565b6126ce6020830186612260565b6126db604083018561265e565b81810360608301526126ed81846122f3565b905095945050505050565b600060608201905061270d6000830186612260565b818103602083015261271f8185612365565b905061272e604083018461265e565b949350505050565b600060808201905061274b6000830187612260565b612758602083018661265e565b818103604083015261276a8185612365565b9050612779606083018461265e565b95945050505050565b6000602082019050818103600083015261279c818461226f565b905092915050565b60006020820190506127b960008301846122e4565b92915050565b600060208201905081810360008301526127d98184612365565b905092915050565b600060208201905081810360008301526127fa816123cf565b9050919050565b6000602082019050818103600083015261281a816123f2565b9050919050565b6000602082019050818103600083015261283a81612415565b9050919050565b6000602082019050818103600083015261285a81612438565b9050919050565b6000602082019050818103600083015261287a8161245b565b9050919050565b6000602082019050818103600083015261289a8161247e565b9050919050565b600060208201905081810360008301526128ba816124a1565b9050919050565b600060208201905081810360008301526128da816124c4565b9050919050565b600060208201905081810360008301526128fa816124e7565b9050919050565b6000602082019050818103600083015261291a8161250a565b9050919050565b6000602082019050818103600083015261293a8161252d565b9050919050565b6000602082019050818103600083015261295a81612550565b9050919050565b6000602082019050818103600083015261297a81612573565b9050919050565b6000602082019050818103600083015261299a81612596565b9050919050565b600060208201905081810360008301526129ba816125b9565b9050919050565b600060208201905081810360008301526129da816125dc565b9050919050565b60006020820190506129f6600083018461265e565b92915050565b6000612a06612a17565b9050612a128282612cb3565b919050565b6000604051905090565b600067ffffffffffffffff821115612a3c57612a3b612deb565b5b612a4582612e1a565b9050602081019050919050565b600067ffffffffffffffff821115612a6d57612a6c612deb565b5b612a7682612e1a565b9050602081019050919050565b6000819050602082019050919050565b600081519050919050565b600081519050919050565b600081519050919050565b6000602082019050919050565b600082825260208201905092915050565b600082825260208201905092915050565b600082825260208201905092915050565b600082825260208201905092915050565b600081905092915050565b6000612b1b82612c35565b9150612b2683612c35565b9250827fffffffffffffffffffffffffffffffffffffffffffffffffffffffffffffffff03821115612b5b57612b5a612d5e565b5b828201905092915050565b6000612b7182612c35565b9150612b7c83612c35565b925082612b8c57612b8b612d8d565b5b828204905092915050565b6000612ba282612c35565b9150612bad83612c35565b925082821015612bc057612bbf612d5e565b5b828203905092915050565b6000612bd682612c15565b9050919050565b60008115159050919050565b60007fffffffff0000000000000000000000000000000000000000000000000000000082169050919050565b600073ffffffffffffffffffffffffffffffffffffffff82169050919050565b6000819050919050565b82818337600083830152505050565b60005b83811015612c6c578082015181840152602081019050612c51565b83811115612c7b576000848401525b50505050565b60006002820490506001821680612c9957607f821691505b60208210811415612cad57612cac612dbc565b5b50919050565b612cbc82612e1a565b810181811067ffffffffffffffff82111715612cdb57612cda612deb565b5b80604052505050565b6000612cef82612c35565b91507fffffffffffffffffffffffffffffffffffffffffffffffffffffffffffffffff821415612d2257612d21612d5e565b5b600182019050919050565b6000612d3882612c35565b9150612d4383612c35565b925082612d5357612d52612d8d565b5b828206905092915050565b7f4e487b7100000000000000000000000000000000000000000000000000000000600052601160045260246000fd5b7f4e487b7100000000000000000000000000000000000000000000000000000000600052601260045260246000fd5b7f4e487b7100000000000000000000000000000000000000000000000000000000600052602260045260246000fd5b7f4e487b7100000000000000000000000000000000000000000000000000000000600052604160045260246000fd5b6000601f19601f8301169050919050565b7f4552433732313a207472616e7366657220746f206e6f6e20455243373231526560008201527f63656976657220696d706c656d656e7465720000000000000000000000000000602082015250565b7f4552433732313a207472616e736665722066726f6d20696e636f72726563742060008201527f6f776e6572000000000000000000000000000000000000000000000000000000602082015250565b7f4552433732313a20746f6b656e20616c7265616479206d696e74656400000000600082015250565b7f4552433732313a207472616e7366657220746f20746865207a65726f2061646460008201527f7265737300000000000000000000000000000000000000000000000000000000602082015250565b7f4552433732313a20617070726f766520746f2063616c6c657200000000000000600082015250565b7f4552433732313a206f70657261746f7220717565727920666f72206e6f6e657860008201527f697374656e7420746f6b656e0000000000000000000000000000000000000000602082015250565b7f4552433732313a20617070726f76652063616c6c6572206973206e6f74206f7760008201527f6e6572206e6f7220617070726f76656420666f7220616c6c0000000000000000602082015250565b7f4552433732313a2062616c616e636520717565727920666f7220746865207a6560008201527f726f206164647265737300000000000000000000000000000000000000000000602082015250565b7f4552433732313a206f776e657220717565727920666f72206e6f6e657869737460008201527f656e7420746f6b656e0000000000000000000000000000000000000000000000602082015250565b7f45524337323155524953746f726167653a2055524920736574206f66206e6f6e60008201527f6578697374656e7420746f6b656e000000000000000000000000000000000000602082015250565b7f4552433732313a206d696e7420746f20746865207a65726f2061646472657373600082015250565b7f45524337323155524953746f726167653a2055524920717565727920666f722060008201527f6e6f6e6578697374656e7420746f6b656e000000000000000000000000000000602082015250565b7f4552433732313a20617070726f76656420717565727920666f72206e6f6e657860008201527f697374656e7420746f6b656e0000000000000000000000000000000000000000602082015250565b7f4552433732314d657461646174613a2055524920717565727920666f72206e6f60008201527f6e6578697374656e7420746f6b656e0000000000000000000000000000000000602082015250565b7f4552433732313a20617070726f76616c20746f2063757272656e74206f776e6560008201527f7200000000000000000000000000000000000000000000000000000000000000602082015250565b7f4552433732313a207472616e736665722063616c6c6572206973206e6f74206f60008201527f776e6572206e6f7220617070726f766564000000000000000000000000000000602082015250565b6132b281612bcb565b81146132bd57600080fd5b50565b6132c981612bdd565b81146132d457600080fd5b50565b6132e081612be9565b81146132eb57600080fd5b50565b6132f781612c35565b811461330257600080fd5b5056fea2646970667358221220442dfb8fba56d59d5e5f389f8b8fbca04a1436025512beb82b7dfbe818a9c24c64736f6c63430008040033",
  "linkReferences": {},
  "deployedLinkReferences": {}
}