{
  "_format": "hh-sol-artifact-1",
  "contractName": "FilGoodNFT1155",
  "sourceName": "contracts/FilGoodNFT1155.sol",
  "abi": [
    {
      "inputs": [],
      "stateMutability": "nonpayable",
      "type": "constructor"
    },
    {
      "anonymous": false,
      "inputs": [
        {
          "indexed": true,
          "internalType": "address",
          "name": "account",
          "type": "address"
        },
        {
          "indexed": true,
          "internalType": "address",
          "name": "operator",
          "type": "address"
        },
        {
          "indexed": false,
          "internalType": "bool",
          "name": "approved",
          "type": "bool"
        }
      ],
      "name": "ApprovalForAll",
      "type": "event"
    },
    {
      "anonymous": false,
      "inputs": [
        {
          "indexed": true,
          "internalType": "address",
          "name": "sender",
          "type": "address"
        },
        {
          "indexed": true,
          "internalType": "uint256",
          "name": "tokenId",
          "type": "uint256"
        },
        {
          "indexed": false,
          "internalType": "string",
          "name": "tokenURI",
          "type": "string"
        },
        {
          "indexed": false,
          "internalType": "uint256",
          "name": "remainingMintableNFTs",
          "type": "uint256"
        }
      ],
      "name": "NewFilGoodNFTMinted",
      "type": "event"
    },
    {
      "anonymous": false,
      "inputs": [
        {
          "indexed": true,
          "internalType": "address",
          "name": "operator",
          "type": "address"
        },
        {
          "indexed": true,
          "internalType": "address",
          "name": "from",
          "type": "address"
        },
        {
          "indexed": true,
          "internalType": "address",
          "name": "to",
          "type": "address"
        },
        {
          "indexed": false,
          "internalType": "uint256[]",
          "name": "ids",
          "type": "uint256[]"
        },
        {
          "indexed": false,
          "internalType": "uint256[]",
          "name": "values",
          "type": "uint256[]"
        }
      ],
      "name": "TransferBatch",
      "type": "event"
    },
    {
      "anonymous": false,
      "inputs": [
        {
          "indexed": true,
          "internalType": "address",
          "name": "operator",
          "type": "address"
        },
        {
          "indexed": true,
          "internalType": "address",
          "name": "from",
          "type": "address"
        },
        {
          "indexed": true,
          "internalType": "address",
          "name": "to",
          "type": "address"
        },
        {
          "indexed": false,
          "internalType": "uint256",
          "name": "id",
          "type": "uint256"
        },
        {
          "indexed": false,
          "internalType": "uint256",
          "name": "value",
          "type": "uint256"
        }
      ],
      "name": "TransferSingle",
      "type": "event"
    },
    {
      "anonymous": false,
      "inputs": [
        {
          "indexed": false,
          "internalType": "string",
          "name": "value",
          "type": "string"
        },
        {
          "indexed": true,
          "internalType": "uint256",
          "name": "id",
          "type": "uint256"
        }
      ],
      "name": "URI",
      "type": "event"
    },
    {
      "inputs": [
        {
          "internalType": "address",
          "name": "account",
          "type": "address"
        },
        {
          "internalType": "uint256",
          "name": "id",
          "type": "uint256"
        }
      ],
      "name": "balanceOf",
      "outputs": [
        {
          "internalType": "uint256",
          "name": "",
          "type": "uint256"
        }
      ],
      "stateMutability": "view",
      "type": "function"
    },
    {
      "inputs": [
        {
          "internalType": "address[]",
          "name": "accounts",
          "type": "address[]"
        },
        {
          "internalType": "uint256[]",
          "name": "ids",
          "type": "uint256[]"
        }
      ],
      "name": "balanceOfBatch",
      "outputs": [
        {
          "internalType": "uint256[]",
          "name": "",
          "type": "uint256[]"
        }
      ],
      "stateMutability": "view",
      "type": "function"
    },
    {
      "inputs": [],
      "name": "getNFTCollection",
      "outputs": [
        {
          "components": [
            {
              "internalType": "address",
              "name": "owner",
              "type": "address"
            },
            {
              "internalType": "string",
              "name": "tokenURI",
              "type": "string"
            },
            {
              "internalType": "uint256",
              "name": "tokenId",
              "type": "uint256"
            }
          ],
          "internalType": "struct FilGoodNFT1155.NFT[]",
          "name": "",
          "type": "tuple[]"
        }
      ],
      "stateMutability": "view",
      "type": "function"
    },
    {
      "inputs": [],
      "name": "getRemainingMintableNFTs",
      "outputs": [
        {
          "internalType": "uint256",
          "name": "",
          "type": "uint256"
        }
      ],
      "stateMutability": "view",
      "type": "function"
    },
    {
      "inputs": [
        {
          "internalType": "address",
          "name": "account",
          "type": "address"
        },
        {
          "internalType": "address",
          "name": "operator",
          "type": "address"
        }
      ],
      "name": "isApprovedForAll",
      "outputs": [
        {
          "internalType": "bool",
          "name": "",
          "type": "bool"
        }
      ],
      "stateMutability": "view",
      "type": "function"
    },
    {
      "inputs": [],
      "name": "maxNFTs",
      "outputs": [
        {
          "internalType": "uint256",
          "name": "",
          "type": "uint256"
        }
      ],
      "stateMutability": "view",
      "type": "function"
    },
    {
      "inputs": [
        {
          "internalType": "string",
          "name": "ipfsURI",
          "type": "string"
        }
      ],
      "name": "mintMyNFT",
      "outputs": [],
      "stateMutability": "nonpayable",
      "type": "function"
    },
    {
      "inputs": [],
      "name": "name",
      "outputs": [
        {
          "internalType": "string",
          "name": "",
          "type": "string"
        }
      ],
      "stateMutability": "view",
      "type": "function"
    },
    {
      "inputs": [
        {
          "internalType": "uint256",
          "name": "",
          "type": "uint256"
        }
      ],
      "name": "nftCollection",
      "outputs": [
        {
          "internalType": "address",
          "name": "owner",
          "type": "address"
        },
        {
          "internalType": "string",
          "name": "tokenURI",
          "type": "string"
        },
        {
          "internalType": "uint256",
          "name": "tokenId",
          "type": "uint256"
        }
      ],
      "stateMutability": "view",
      "type": "function"
    },
    {
      "inputs": [],
      "name": "remainingMintableNFTs",
      "outputs": [
        {
          "internalType": "uint256",
          "name": "",
          "type": "uint256"
        }
      ],
      "stateMutability": "view",
      "type": "function"
    },
    {
      "inputs": [
        {
          "internalType": "address",
          "name": "from",
          "type": "address"
        },
        {
          "internalType": "address",
          "name": "to",
          "type": "address"
        },
        {
          "internalType": "uint256[]",
          "name": "ids",
          "type": "uint256[]"
        },
        {
          "internalType": "uint256[]",
          "name": "amounts",
          "type": "uint256[]"
        },
        {
          "internalType": "bytes",
          "name": "data",
          "type": "bytes"
        }
      ],
      "name": "safeBatchTransferFrom",
      "outputs": [],
      "stateMutability": "nonpayable",
      "type": "function"
    },
    {
      "inputs": [
        {
          "internalType": "address",
          "name": "from",
          "type": "address"
        },
        {
          "internalType": "address",
          "name": "to",
          "type": "address"
        },
        {
          "internalType": "uint256",
          "name": "id",
          "type": "uint256"
        },
        {
          "internalType": "uint256",
          "name": "amount",
          "type": "uint256"
        },
        {
          "internalType": "bytes",
          "name": "data",
          "type": "bytes"
        }
      ],
      "name": "safeTransferFrom",
      "outputs": [],
      "stateMutability": "nonpayable",
      "type": "function"
    },
    {
      "inputs": [
        {
          "internalType": "address",
          "name": "operator",
          "type": "address"
        },
        {
          "internalType": "bool",
          "name": "approved",
          "type": "bool"
        }
      ],
      "name": "setApprovalForAll",
      "outputs": [],
      "stateMutability": "nonpayable",
      "type": "function"
    },
    {
      "inputs": [
        {
          "internalType": "bytes4",
          "name": "interfaceId",
          "type": "bytes4"
        }
      ],
      "name": "supportsInterface",
      "outputs": [
        {
          "internalType": "bool",
          "name": "",
          "type": "bool"
        }
      ],
      "stateMutability": "view",
      "type": "function"
    },
    {
      "inputs": [
        {
          "internalType": "uint256",
          "name": "_tokenId",
          "type": "uint256"
        }
      ],
      "name": "uri",
      "outputs": [
        {
          "internalType": "string",
          "name": "",
          "type": "string"
        }
      ],
      "stateMutability": "view",
      "type": "function"
    }
  ],
  "bytecode": "0x60806040526040518060400160405280601181526020017f46696c476f6f64204e46547320323032320000000000000000000000000000008152506007908051906020019062000051929190620001f1565b503480156200005f57600080fd5b506040518060400160405280600c81526020017f46696c2d476f6f64204e46540000000000000000000000000000000000000000815250620000a7816200010960201b60201c565b50620000f36040518060400160405280601781526020017f54686973206973206d79204e465420636f6e74726163740000000000000000008152506200012560201b62000dac1760201c565b60646005819055506064600681905550620003ce565b806002908051906020019062000121929190620001f1565b5050565b620001c5816040516024016200013c9190620002e2565b6040516020818303038152906040527f41304fac000000000000000000000000000000000000000000000000000000007bffffffffffffffffffffffffffffffffffffffffffffffffffffffff19166020820180517bffffffffffffffffffffffffffffffffffffffffffffffffffffffff8381831617835250505050620001c860201b60201c565b50565b60008151905060006a636f6e736f6c652e6c6f679050602083016000808483855afa5050505050565b828054620001ff9062000358565b90600052602060002090601f0160209004810192826200022357600085556200026f565b82601f106200023e57805160ff19168380011785556200026f565b828001600101855582156200026f579182015b828111156200026e57825182559160200191906001019062000251565b5b5090506200027e919062000282565b5090565b5b808211156200029d57600081600090555060010162000283565b5090565b6000620002ae8262000306565b620002ba818562000311565b9350620002cc81856020860162000322565b620002d781620003bd565b840191505092915050565b60006020820190508181036000830152620002fe8184620002a1565b905092915050565b600081519050919050565b600082825260208201905092915050565b60005b838110156200034257808201518184015260208101905062000325565b8381111562000352576000848401525b50505050565b600060028204905060018216806200037157607f821691505b602082108114156200038857620003876200038e565b5b50919050565b7f4e487b7100000000000000000000000000000000000000000000000000000000600052602260045260246000fd5b6000601f19601f8301169050919050565b61338380620003de6000396000f3fe608060405234801561001057600080fd5b50600436106100f45760003560e01c80634e9e1ec611610097578063c298de7e11610066578063c298de7e14610299578063e985e9c5146102b7578063f242432a146102e7578063fedea02314610303576100f4565b80634e9e1ec61461020f5780637c711b271461022d578063911fd8eb1461025f578063a22cb4651461027d576100f4565b80630e89341c116100d35780630e89341c146101775780632eb2c2d6146101a757806338d64576146101c35780634e1273f4146101df576100f4565b8062fdd58e146100f957806301ffc9a71461012957806306fdde0314610159575b600080fd5b610113600480360381019061010e91906121ed565b610321565b6040516101209190612a5f565b60405180910390f35b610143600480360381019061013e9190612295565b6103ea565b6040516101509190612892565b60405180910390f35b6101616104cc565b60405161016e91906128ad565b60405180910390f35b610191600480360381019061018c9190612328565b61055a565b60405161019e91906128ad565b60405180910390f35b6101c160048036038101906101bc9190612063565b6105ff565b005b6101dd60048036038101906101d891906122e7565b6106a0565b005b6101f960048036038101906101f49190612229565b610867565b6040516102069190612839565b60405180910390f35b610217610a18565b6040516102249190612a5f565b60405180910390f35b61024760048036038101906102429190612328565b610a1e565b604051610256939291906127d9565b60405180910390f35b610267610b00565b6040516102749190612a5f565b60405180910390f35b610297600480360381019061029291906121b1565b610b06565b005b6102a1610b1c565b6040516102ae9190612a5f565b60405180910390f35b6102d160048036038101906102cc9190612027565b610b26565b6040516102de9190612892565b60405180910390f35b61030160048036038101906102fc9190612122565b610bba565b005b61030b610c5b565b6040516103189190612817565b60405180910390f35b60008073ffffffffffffffffffffffffffffffffffffffff168373ffffffffffffffffffffffffffffffffffffffff161415610392576040517f08c379a00000000000000000000000000000000000000000000000000000000081526004016103899061293f565b60405180910390fd5b60008083815260200190815260200160002060008473ffffffffffffffffffffffffffffffffffffffff1673ffffffffffffffffffffffffffffffffffffffff16815260200190815260200160002054905092915050565b60007fd9b67a26000000000000000000000000000000000000000000000000000000007bffffffffffffffffffffffffffffffffffffffffffffffffffffffff1916827bffffffffffffffffffffffffffffffffffffffffffffffffffffffff191614806104b557507f0e89341c000000000000000000000000000000000000000000000000000000007bffffffffffffffffffffffffffffffffffffffffffffffffffffffff1916827bffffffffffffffffffffffffffffffffffffffffffffffffffffffff1916145b806104c557506104c482610e45565b5b9050919050565b600780546104d990612d7d565b80601f016020809104026020016040519081016040528092919081815260200182805461050590612d7d565b80156105525780601f1061052757610100808354040283529160200191610552565b820191906000526020600020905b81548152906001019060200180831161053557829003601f168201915b505050505081565b606060046000838152602001908152602001600020805461057a90612d7d565b80601f01602080910402602001604051908101604052809291908181526020018280546105a690612d7d565b80156105f35780601f106105c8576101008083540402835291602001916105f3565b820191906000526020600020905b8154815290600101906020018083116105d657829003601f168201915b50505050509050919050565b610607610eaf565b73ffffffffffffffffffffffffffffffffffffffff168573ffffffffffffffffffffffffffffffffffffffff16148061064d575061064c85610647610eaf565b610b26565b5b61068c576040517f08c379a00000000000000000000000000000000000000000000000000000000081526004016106839061299f565b60405180910390fd5b6106998585858585610eb7565b5050505050565b6005546106ad6003611225565b106106b757600080fd5b60006106c36003611225565b9050600060405180606001604052803373ffffffffffffffffffffffffffffffffffffffff1681526020018481526020018381525090506000839050610741338460016040518060400160405280601081526020017f6d61796265206e616d6520686572653f00000000000000000000000000000000815250611233565b61074b83856113e4565b6107556003611410565b61075f6003611225565b60055461076c9190612c93565b600681905550600882908060018154018082558091505060019003906000526020600020906003020160009091909190915060008201518160000160006101000a81548173ffffffffffffffffffffffffffffffffffffffff021916908373ffffffffffffffffffffffffffffffffffffffff1602179055506020820151816001019080519060200190610801929190611d1f565b50604082015181600201555050823373ffffffffffffffffffffffffffffffffffffffff167f79791877b69bd5d876524dcc51d3960d703b55b782691a60d7df02ab86466eaf866006546040516108599291906128cf565b60405180910390a350505050565b606081518351146108ad576040517f08c379a00000000000000000000000000000000000000000000000000000000081526004016108a4906129ff565b60405180910390fd5b6000835167ffffffffffffffff8111156108f0577f4e487b7100000000000000000000000000000000000000000000000000000000600052604160045260246000fd5b60405190808252806020026020018201604052801561091e5781602001602082028036833780820191505090505b50905060005b8451811015610a0d576109b7858281518110610969577f4e487b7100000000000000000000000000000000000000000000000000000000600052603260045260246000fd5b60200260200101518583815181106109aa577f4e487b7100000000000000000000000000000000000000000000000000000000600052603260045260246000fd5b6020026020010151610321565b8282815181106109f0577f4e487b7100000000000000000000000000000000000000000000000000000000600052603260045260246000fd5b60200260200101818152505080610a0690612de0565b9050610924565b508091505092915050565b60055481565b60088181548110610a2e57600080fd5b90600052602060002090600302016000915090508060000160009054906101000a900473ffffffffffffffffffffffffffffffffffffffff1690806001018054610a7790612d7d565b80601f0160208091040260200160405190810160405280929190818152602001828054610aa390612d7d565b8015610af05780601f10610ac557610100808354040283529160200191610af0565b820191906000526020600020905b815481529060010190602001808311610ad357829003601f168201915b5050505050908060020154905083565b60065481565b610b18610b11610eaf565b8383611426565b5050565b6000600654905090565b6000600160008473ffffffffffffffffffffffffffffffffffffffff1673ffffffffffffffffffffffffffffffffffffffff16815260200190815260200160002060008373ffffffffffffffffffffffffffffffffffffffff1673ffffffffffffffffffffffffffffffffffffffff16815260200190815260200160002060009054906101000a900460ff16905092915050565b610bc2610eaf565b73ffffffffffffffffffffffffffffffffffffffff168573ffffffffffffffffffffffffffffffffffffffff161480610c085750610c0785610c02610eaf565b610b26565b5b610c47576040517f08c379a0000000000000000000000000000000000000000000000000000000008152600401610c3e9061295f565b60405180910390fd5b610c548585858585611593565b5050505050565b60606008805480602002602001604051908101604052809291908181526020016000905b82821015610da357838290600052602060002090600302016040518060600160405290816000820160009054906101000a900473ffffffffffffffffffffffffffffffffffffffff1673ffffffffffffffffffffffffffffffffffffffff1673ffffffffffffffffffffffffffffffffffffffff168152602001600182018054610d0890612d7d565b80601f0160208091040260200160405190810160405280929190818152602001828054610d3490612d7d565b8015610d815780601f10610d5657610100808354040283529160200191610d81565b820191906000526020600020905b815481529060010190602001808311610d6457829003601f168201915b5050505050815260200160028201548152505081526020019060010190610c7f565b50505050905090565b610e4281604051602401610dc091906128ad565b6040516020818303038152906040527f41304fac000000000000000000000000000000000000000000000000000000007bffffffffffffffffffffffffffffffffffffffffffffffffffffffff19166020820180517bffffffffffffffffffffffffffffffffffffffffffffffffffffffff838183161783525050505061182f565b50565b60007f01ffc9a7000000000000000000000000000000000000000000000000000000007bffffffffffffffffffffffffffffffffffffffffffffffffffffffff1916827bffffffffffffffffffffffffffffffffffffffffffffffffffffffff1916149050919050565b600033905090565b8151835114610efb576040517f08c379a0000000000000000000000000000000000000000000000000000000008152600401610ef290612a1f565b60405180910390fd5b600073ffffffffffffffffffffffffffffffffffffffff168473ffffffffffffffffffffffffffffffffffffffff161415610f6b576040517f08c379a0000000000000000000000000000000000000000000000000000000008152600401610f629061297f565b60405180910390fd5b6000610f75610eaf565b9050610f85818787878787611858565b60005b8451811015611182576000858281518110610fcc577f4e487b7100000000000000000000000000000000000000000000000000000000600052603260045260246000fd5b602002602001015190506000858381518110611011577f4e487b7100000000000000000000000000000000000000000000000000000000600052603260045260246000fd5b60200260200101519050600080600084815260200190815260200160002060008b73ffffffffffffffffffffffffffffffffffffffff1673ffffffffffffffffffffffffffffffffffffffff168152602001908152602001600020549050818110156110b2576040517f08c379a00000000000000000000000000000000000000000000000000000000081526004016110a9906129bf565b60405180910390fd5b81810360008085815260200190815260200160002060008c73ffffffffffffffffffffffffffffffffffffffff1673ffffffffffffffffffffffffffffffffffffffff168152602001908152602001600020819055508160008085815260200190815260200160002060008b73ffffffffffffffffffffffffffffffffffffffff1673ffffffffffffffffffffffffffffffffffffffff16815260200190815260200160002060008282546111679190612c3d565b925050819055505050508061117b90612de0565b9050610f88565b508473ffffffffffffffffffffffffffffffffffffffff168673ffffffffffffffffffffffffffffffffffffffff168273ffffffffffffffffffffffffffffffffffffffff167f4a39dc06d4c0dbc64b70af90fd698a233a518aa5d07e595d983b8c0526c8f7fb87876040516111f992919061285b565b60405180910390a461120f818787878787611860565b61121d818787878787611868565b505050505050565b600081600001549050919050565b600073ffffffffffffffffffffffffffffffffffffffff168473ffffffffffffffffffffffffffffffffffffffff1614156112a3576040517f08c379a000000000000000000000000000000000000000000000000000000000815260040161129a90612a3f565b60405180910390fd5b60006112ad610eaf565b905060006112ba85611a4f565b905060006112c785611a4f565b90506112d883600089858589611858565b8460008088815260200190815260200160002060008973ffffffffffffffffffffffffffffffffffffffff1673ffffffffffffffffffffffffffffffffffffffff16815260200190815260200160002060008282546113379190612c3d565b925050819055508673ffffffffffffffffffffffffffffffffffffffff16600073ffffffffffffffffffffffffffffffffffffffff168473ffffffffffffffffffffffffffffffffffffffff167fc3d58168c5ae7397731d063d5bbf3d657854427343f4c083240f7aacaa2d0f6289896040516113b5929190612a7a565b60405180910390a46113cc83600089858589611860565b6113db83600089898989611b15565b50505050505050565b8060046000848152602001908152602001600020908051906020019061140b929190611d1f565b505050565b6001816000016000828254019250508190555050565b8173ffffffffffffffffffffffffffffffffffffffff168373ffffffffffffffffffffffffffffffffffffffff161415611495576040517f08c379a000000000000000000000000000000000000000000000000000000000815260040161148c906129df565b60405180910390fd5b80600160008573ffffffffffffffffffffffffffffffffffffffff1673ffffffffffffffffffffffffffffffffffffffff16815260200190815260200160002060008473ffffffffffffffffffffffffffffffffffffffff1673ffffffffffffffffffffffffffffffffffffffff16815260200190815260200160002060006101000a81548160ff0219169083151502179055508173ffffffffffffffffffffffffffffffffffffffff168373ffffffffffffffffffffffffffffffffffffffff167f17307eab39ab6107e8899845ad3d59bd9653f200f220920489ca2b5937696c31836040516115869190612892565b60405180910390a3505050565b600073ffffffffffffffffffffffffffffffffffffffff168473ffffffffffffffffffffffffffffffffffffffff161415611603576040517f08c379a00000000000000000000000000000000000000000000000000000000081526004016115fa9061297f565b60405180910390fd5b600061160d610eaf565b9050600061161a85611a4f565b9050600061162785611a4f565b9050611637838989858589611858565b600080600088815260200190815260200160002060008a73ffffffffffffffffffffffffffffffffffffffff1673ffffffffffffffffffffffffffffffffffffffff168152602001908152602001600020549050858110156116ce576040517f08c379a00000000000000000000000000000000000000000000000000000000081526004016116c5906129bf565b60405180910390fd5b85810360008089815260200190815260200160002060008b73ffffffffffffffffffffffffffffffffffffffff1673ffffffffffffffffffffffffffffffffffffffff168152602001908152602001600020819055508560008089815260200190815260200160002060008a73ffffffffffffffffffffffffffffffffffffffff1673ffffffffffffffffffffffffffffffffffffffff16815260200190815260200160002060008282546117839190612c3d565b925050819055508773ffffffffffffffffffffffffffffffffffffffff168973ffffffffffffffffffffffffffffffffffffffff168573ffffffffffffffffffffffffffffffffffffffff167fc3d58168c5ae7397731d063d5bbf3d657854427343f4c083240f7aacaa2d0f628a8a604051611800929190612a7a565b60405180910390a4611816848a8a86868a611860565b611824848a8a8a8a8a611b15565b505050505050505050565b60008151905060006a636f6e736f6c652e6c6f679050602083016000808483855afa5050505050565b505050505050565b505050505050565b6118878473ffffffffffffffffffffffffffffffffffffffff16611cfc565b15611a47578373ffffffffffffffffffffffffffffffffffffffff1663bc197c8187878686866040518663ffffffff1660e01b81526004016118cd959493929190612717565b602060405180830381600087803b1580156118e757600080fd5b505af192505050801561191857506040513d601f19601f8201168201806040525081019061191591906122be565b60015b6119be57611924612eb6565b806308c379a01415611981575061193961325b565b806119445750611983565b806040517f08c379a000000000000000000000000000000000000000000000000000000000815260040161197891906128ad565b60405180910390fd5b505b6040517f08c379a00000000000000000000000000000000000000000000000000000000081526004016119b5906128ff565b60405180910390fd5b63bc197c8160e01b7bffffffffffffffffffffffffffffffffffffffffffffffffffffffff1916817bffffffffffffffffffffffffffffffffffffffffffffffffffffffff191614611a45576040517f08c379a0000000000000000000000000000000000000000000000000000000008152600401611a3c9061291f565b60405180910390fd5b505b505050505050565b60606000600167ffffffffffffffff811115611a94577f4e487b7100000000000000000000000000000000000000000000000000000000600052604160045260246000fd5b604051908082528060200260200182016040528015611ac25781602001602082028036833780820191505090505b5090508281600081518110611b00577f4e487b7100000000000000000000000000000000000000000000000000000000600052603260045260246000fd5b60200260200101818152505080915050919050565b611b348473ffffffffffffffffffffffffffffffffffffffff16611cfc565b15611cf4578373ffffffffffffffffffffffffffffffffffffffff1663f23a6e6187878686866040518663ffffffff1660e01b8152600401611b7a95949392919061277f565b602060405180830381600087803b158015611b9457600080fd5b505af1925050508015611bc557506040513d601f19601f82011682018060405250810190611bc291906122be565b60015b611c6b57611bd1612eb6565b806308c379a01415611c2e5750611be661325b565b80611bf15750611c30565b806040517f08c379a0000000000000000000000000000000000000000000000000000000008152600401611c2591906128ad565b60405180910390fd5b505b6040517f08c379a0000000000000000000000000000000000000000000000000000000008152600401611c62906128ff565b60405180910390fd5b63f23a6e6160e01b7bffffffffffffffffffffffffffffffffffffffffffffffffffffffff1916817bffffffffffffffffffffffffffffffffffffffffffffffffffffffff191614611cf2576040517f08c379a0000000000000000000000000000000000000000000000000000000008152600401611ce99061291f565b60405180910390fd5b505b505050505050565b6000808273ffffffffffffffffffffffffffffffffffffffff163b119050919050565b828054611d2b90612d7d565b90600052602060002090601f016020900481019282611d4d5760008555611d94565b82601f10611d6657805160ff1916838001178555611d94565b82800160010185558215611d94579182015b82811115611d93578251825591602001919060010190611d78565b5b509050611da19190611da5565b5090565b5b80821115611dbe576000816000905550600101611da6565b5090565b6000611dd5611dd084612ac8565b612aa3565b90508083825260208201905082856020860282011115611df457600080fd5b60005b85811015611e245781611e0a8882611f16565b845260208401935060208301925050600181019050611df7565b5050509392505050565b6000611e41611e3c84612af4565b612aa3565b90508083825260208201905082856020860282011115611e6057600080fd5b60005b85811015611e905781611e768882612012565b845260208401935060208301925050600181019050611e63565b5050509392505050565b6000611ead611ea884612b20565b612aa3565b905082815260208101848484011115611ec557600080fd5b611ed0848285612d3b565b509392505050565b6000611eeb611ee684612b51565b612aa3565b905082815260208101848484011115611f0357600080fd5b611f0e848285612d3b565b509392505050565b600081359050611f25816132f1565b92915050565b600082601f830112611f3c57600080fd5b8135611f4c848260208601611dc2565b91505092915050565b600082601f830112611f6657600080fd5b8135611f76848260208601611e2e565b91505092915050565b600081359050611f8e81613308565b92915050565b600081359050611fa38161331f565b92915050565b600081519050611fb88161331f565b92915050565b600082601f830112611fcf57600080fd5b8135611fdf848260208601611e9a565b91505092915050565b600082601f830112611ff957600080fd5b8135612009848260208601611ed8565b91505092915050565b60008135905061202181613336565b92915050565b6000806040838503121561203a57600080fd5b600061204885828601611f16565b925050602061205985828601611f16565b9150509250929050565b600080600080600060a0868803121561207b57600080fd5b600061208988828901611f16565b955050602061209a88828901611f16565b945050604086013567ffffffffffffffff8111156120b757600080fd5b6120c388828901611f55565b935050606086013567ffffffffffffffff8111156120e057600080fd5b6120ec88828901611f55565b925050608086013567ffffffffffffffff81111561210957600080fd5b61211588828901611fbe565b9150509295509295909350565b600080600080600060a0868803121561213a57600080fd5b600061214888828901611f16565b955050602061215988828901611f16565b945050604061216a88828901612012565b935050606061217b88828901612012565b925050608086013567ffffffffffffffff81111561219857600080fd5b6121a488828901611fbe565b9150509295509295909350565b600080604083850312156121c457600080fd5b60006121d285828601611f16565b92505060206121e385828601611f7f565b9150509250929050565b6000806040838503121561220057600080fd5b600061220e85828601611f16565b925050602061221f85828601612012565b9150509250929050565b6000806040838503121561223c57600080fd5b600083013567ffffffffffffffff81111561225657600080fd5b61226285828601611f2b565b925050602083013567ffffffffffffffff81111561227f57600080fd5b61228b85828601611f55565b9150509250929050565b6000602082840312156122a757600080fd5b60006122b584828501611f94565b91505092915050565b6000602082840312156122d057600080fd5b60006122de84828501611fa9565b91505092915050565b6000602082840312156122f957600080fd5b600082013567ffffffffffffffff81111561231357600080fd5b61231f84828501611fe8565b91505092915050565b60006020828403121561233a57600080fd5b600061234884828501612012565b91505092915050565b600061235d83836126a9565b905092915050565b600061237183836126f9565b60208301905092915050565b61238681612cc7565b82525050565b61239581612cc7565b82525050565b60006123a682612ba2565b6123b08185612be8565b9350836020820285016123c285612b82565b8060005b858110156123fe57848403895281516123df8582612351565b94506123ea83612bce565b925060208a019950506001810190506123c6565b50829750879550505050505092915050565b600061241b82612bad565b6124258185612bf9565b935061243083612b92565b8060005b838110156124615781516124488882612365565b975061245383612bdb565b925050600181019050612434565b5085935050505092915050565b61247781612cd9565b82525050565b600061248882612bb8565b6124928185612c0a565b93506124a2818560208601612d4a565b6124ab81612ed8565b840191505092915050565b60006124c182612bc3565b6124cb8185612c1b565b93506124db818560208601612d4a565b6124e481612ed8565b840191505092915050565b60006124fa82612bc3565b6125048185612c2c565b9350612514818560208601612d4a565b61251d81612ed8565b840191505092915050565b6000612535603483612c2c565b915061254082612ef6565b604082019050919050565b6000612558602883612c2c565b915061256382612f45565b604082019050919050565b600061257b602b83612c2c565b915061258682612f94565b604082019050919050565b600061259e602983612c2c565b91506125a982612fe3565b604082019050919050565b60006125c1602583612c2c565b91506125cc82613032565b604082019050919050565b60006125e4603283612c2c565b91506125ef82613081565b604082019050919050565b6000612607602a83612c2c565b9150612612826130d0565b604082019050919050565b600061262a602983612c2c565b91506126358261311f565b604082019050919050565b600061264d602983612c2c565b91506126588261316e565b604082019050919050565b6000612670602883612c2c565b915061267b826131bd565b604082019050919050565b6000612693602183612c2c565b915061269e8261320c565b604082019050919050565b60006060830160008301516126c1600086018261237d565b50602083015184820360208601526126d982826124b6565b91505060408301516126ee60408601826126f9565b508091505092915050565b61270281612d31565b82525050565b61271181612d31565b82525050565b600060a08201905061272c600083018861238c565b612739602083018761238c565b818103604083015261274b8186612410565b9050818103606083015261275f8185612410565b90508181036080830152612773818461247d565b90509695505050505050565b600060a082019050612794600083018861238c565b6127a1602083018761238c565b6127ae6040830186612708565b6127bb6060830185612708565b81810360808301526127cd818461247d565b90509695505050505050565b60006060820190506127ee600083018661238c565b818103602083015261280081856124ef565b905061280f6040830184612708565b949350505050565b60006020820190508181036000830152612831818461239b565b905092915050565b600060208201905081810360008301526128538184612410565b905092915050565b600060408201905081810360008301526128758185612410565b905081810360208301526128898184612410565b90509392505050565b60006020820190506128a7600083018461246e565b92915050565b600060208201905081810360008301526128c781846124ef565b905092915050565b600060408201905081810360008301526128e981856124ef565b90506128f86020830184612708565b9392505050565b6000602082019050818103600083015261291881612528565b9050919050565b600060208201905081810360008301526129388161254b565b9050919050565b600060208201905081810360008301526129588161256e565b9050919050565b6000602082019050818103600083015261297881612591565b9050919050565b60006020820190508181036000830152612998816125b4565b9050919050565b600060208201905081810360008301526129b8816125d7565b9050919050565b600060208201905081810360008301526129d8816125fa565b9050919050565b600060208201905081810360008301526129f88161261d565b9050919050565b60006020820190508181036000830152612a1881612640565b9050919050565b60006020820190508181036000830152612a3881612663565b9050919050565b60006020820190508181036000830152612a5881612686565b9050919050565b6000602082019050612a746000830184612708565b92915050565b6000604082019050612a8f6000830185612708565b612a9c6020830184612708565b9392505050565b6000612aad612abe565b9050612ab98282612daf565b919050565b6000604051905090565b600067ffffffffffffffff821115612ae357612ae2612e87565b5b602082029050602081019050919050565b600067ffffffffffffffff821115612b0f57612b0e612e87565b5b602082029050602081019050919050565b600067ffffffffffffffff821115612b3b57612b3a612e87565b5b612b4482612ed8565b9050602081019050919050565b600067ffffffffffffffff821115612b6c57612b6b612e87565b5b612b7582612ed8565b9050602081019050919050565b6000819050602082019050919050565b6000819050602082019050919050565b600081519050919050565b600081519050919050565b600081519050919050565b600081519050919050565b6000602082019050919050565b6000602082019050919050565b600082825260208201905092915050565b600082825260208201905092915050565b600082825260208201905092915050565b600082825260208201905092915050565b600082825260208201905092915050565b6000612c4882612d31565b9150612c5383612d31565b9250827fffffffffffffffffffffffffffffffffffffffffffffffffffffffffffffffff03821115612c8857612c87612e29565b5b828201905092915050565b6000612c9e82612d31565b9150612ca983612d31565b925082821015612cbc57612cbb612e29565b5b828203905092915050565b6000612cd282612d11565b9050919050565b60008115159050919050565b60007fffffffff0000000000000000000000000000000000000000000000000000000082169050919050565b600073ffffffffffffffffffffffffffffffffffffffff82169050919050565b6000819050919050565b82818337600083830152505050565b60005b83811015612d68578082015181840152602081019050612d4d565b83811115612d77576000848401525b50505050565b60006002820490506001821680612d9557607f821691505b60208210811415612da957612da8612e58565b5b50919050565b612db882612ed8565b810181811067ffffffffffffffff82111715612dd757612dd6612e87565b5b80604052505050565b6000612deb82612d31565b91507fffffffffffffffffffffffffffffffffffffffffffffffffffffffffffffffff821415612e1e57612e1d612e29565b5b600182019050919050565b7f4e487b7100000000000000000000000000000000000000000000000000000000600052601160045260246000fd5b7f4e487b7100000000000000000000000000000000000000000000000000000000600052602260045260246000fd5b7f4e487b7100000000000000000000000000000000000000000000000000000000600052604160045260246000fd5b600060033d1115612ed55760046000803e612ed2600051612ee9565b90505b90565b6000601f19601f8301169050919050565b60008160e01c9050919050565b7f455243313135353a207472616e7366657220746f206e6f6e204552433131353560008201527f526563656976657220696d706c656d656e746572000000000000000000000000602082015250565b7f455243313135353a204552433131353552656365697665722072656a6563746560008201527f6420746f6b656e73000000000000000000000000000000000000000000000000602082015250565b7f455243313135353a2062616c616e636520717565727920666f7220746865207a60008201527f65726f2061646472657373000000000000000000000000000000000000000000602082015250565b7f455243313135353a2063616c6c6572206973206e6f74206f776e6572206e6f7260008201527f20617070726f7665640000000000000000000000000000000000000000000000602082015250565b7f455243313135353a207472616e7366657220746f20746865207a65726f20616460008201527f6472657373000000000000000000000000000000000000000000000000000000602082015250565b7f455243313135353a207472616e736665722063616c6c6572206973206e6f742060008201527f6f776e6572206e6f7220617070726f7665640000000000000000000000000000602082015250565b7f455243313135353a20696e73756666696369656e742062616c616e636520666f60008201527f72207472616e7366657200000000000000000000000000000000000000000000602082015250565b7f455243313135353a2073657474696e6720617070726f76616c2073746174757360008201527f20666f722073656c660000000000000000000000000000000000000000000000602082015250565b7f455243313135353a206163636f756e747320616e6420696473206c656e67746860008201527f206d69736d617463680000000000000000000000000000000000000000000000602082015250565b7f455243313135353a2069647320616e6420616d6f756e7473206c656e6774682060008201527f6d69736d61746368000000000000000000000000000000000000000000000000602082015250565b7f455243313135353a206d696e7420746f20746865207a65726f2061646472657360008201527f7300000000000000000000000000000000000000000000000000000000000000602082015250565b600060443d101561326b576132ee565b613273612abe565b60043d036004823e80513d602482011167ffffffffffffffff8211171561329b5750506132ee565b808201805167ffffffffffffffff8111156132b957505050506132ee565b80602083010160043d0385018111156132d65750505050506132ee565b6132e582602001850186612daf565b82955050505050505b90565b6132fa81612cc7565b811461330557600080fd5b50565b61331181612cd9565b811461331c57600080fd5b50565b61332881612ce5565b811461333357600080fd5b50565b61333f81612d31565b811461334a57600080fd5b5056fea26469706673582212209c472bc69ca3603e73929733fbdcae1292955b7f56fd1088b44b18fdfeee330964736f6c63430008040033",
  "linkReferences": {},
  "deployedLinkReferences": {}
}