{
  "_format": "hh-sol-artifact-1",
  "contractName": "FilGoodNFT721",
  "sourceName": "contracts/FilGoodNFT721.sol",
  "abi": [
    {
      "inputs": [],
      "stateMutability": "nonpayable",
      "type": "constructor"
    },
    {
      "anonymous": false,
      "inputs": [
        {
          "indexed": true,
          "internalType": "address",
          "name": "owner",
          "type": "address"
        },
        {
          "indexed": true,
          "internalType": "address",
          "name": "approved",
          "type": "address"
        },
        {
          "indexed": true,
          "internalType": "uint256",
          "name": "tokenId",
          "type": "uint256"
        }
      ],
      "name": "Approval",
      "type": "event"
    },
    {
      "anonymous": false,
      "inputs": [
        {
          "indexed": true,
          "internalType": "address",
          "name": "owner",
          "type": "address"
        },
        {
          "indexed": true,
          "internalType": "address",
          "name": "operator",
          "type": "address"
        },
        {
          "indexed": false,
          "internalType": "bool",
          "name": "approved",
          "type": "bool"
        }
      ],
      "name": "ApprovalForAll",
      "type": "event"
    },
    {
      "anonymous": false,
      "inputs": [
        {
          "indexed": true,
          "internalType": "address",
          "name": "sender",
          "type": "address"
        },
        {
          "indexed": true,
          "internalType": "uint256",
          "name": "tokenId",
          "type": "uint256"
        },
        {
          "indexed": false,
          "internalType": "string",
          "name": "tokenURI",
          "type": "string"
        },
        {
          "indexed": false,
          "internalType": "uint256",
          "name": "remainingMintableNFTs",
          "type": "uint256"
        }
      ],
      "name": "NewFilGoodNFTMinted",
      "type": "event"
    },
    {
      "anonymous": false,
      "inputs": [
        {
          "indexed": true,
          "internalType": "address",
          "name": "from",
          "type": "address"
        },
        {
          "indexed": true,
          "internalType": "address",
          "name": "to",
          "type": "address"
        },
        {
          "indexed": true,
          "internalType": "uint256",
          "name": "tokenId",
          "type": "uint256"
        }
      ],
      "name": "Transfer",
      "type": "event"
    },
    {
      "inputs": [
        {
          "internalType": "address",
          "name": "to",
          "type": "address"
        },
        {
          "internalType": "uint256",
          "name": "tokenId",
          "type": "uint256"
        }
      ],
      "name": "approve",
      "outputs": [],
      "stateMutability": "nonpayable",
      "type": "function"
    },
    {
      "inputs": [
        {
          "internalType": "address",
          "name": "owner",
          "type": "address"
        }
      ],
      "name": "balanceOf",
      "outputs": [
        {
          "internalType": "uint256",
          "name": "",
          "type": "uint256"
        }
      ],
      "stateMutability": "view",
      "type": "function"
    },
    {
      "inputs": [
        {
          "internalType": "uint256",
          "name": "tokenId",
          "type": "uint256"
        }
      ],
      "name": "getApproved",
      "outputs": [
        {
          "internalType": "address",
          "name": "",
          "type": "address"
        }
      ],
      "stateMutability": "view",
      "type": "function"
    },
    {
      "inputs": [],
      "name": "getNFTCollection",
      "outputs": [
        {
          "components": [
            {
              "internalType": "address",
              "name": "owner",
              "type": "address"
            },
            {
              "internalType": "string",
              "name": "tokenURI",
              "type": "string"
            },
            {
              "internalType": "uint256",
              "name": "tokenId",
              "type": "uint256"
            }
          ],
          "internalType": "struct FilGoodNFT721.myNFT[]",
          "name": "",
          "type": "tuple[]"
        }
      ],
      "stateMutability": "view",
      "type": "function"
    },
    {
      "inputs": [],
      "name": "getRemainingMintableNFTs",
      "outputs": [
        {
          "internalType": "uint256",
          "name": "",
          "type": "uint256"
        }
      ],
      "stateMutability": "view",
      "type": "function"
    },
    {
      "inputs": [
        {
          "internalType": "address",
          "name": "owner",
          "type": "address"
        },
        {
          "internalType": "address",
          "name": "operator",
          "type": "address"
        }
      ],
      "name": "isApprovedForAll",
      "outputs": [
        {
          "internalType": "bool",
          "name": "",
          "type": "bool"
        }
      ],
      "stateMutability": "view",
      "type": "function"
    },
    {
      "inputs": [],
      "name": "maxNFTs",
      "outputs": [
        {
          "internalType": "uint256",
          "name": "",
          "type": "uint256"
        }
      ],
      "stateMutability": "view",
      "type": "function"
    },
    {
      "inputs": [
        {
          "internalType": "string",
          "name": "ipfsURI",
          "type": "string"
        }
      ],
      "name": "mintMyNFT",
      "outputs": [],
      "stateMutability": "nonpayable",
      "type": "function"
    },
    {
      "inputs": [],
      "name": "name",
      "outputs": [
        {
          "internalType": "string",
          "name": "",
          "type": "string"
        }
      ],
      "stateMutability": "view",
      "type": "function"
    },
    {
      "inputs": [
        {
          "internalType": "uint256",
          "name": "",
          "type": "uint256"
        }
      ],
      "name": "nftCollection",
      "outputs": [
        {
          "internalType": "address",
          "name": "owner",
          "type": "address"
        },
        {
          "internalType": "string",
          "name": "tokenURI",
          "type": "string"
        },
        {
          "internalType": "uint256",
          "name": "tokenId",
          "type": "uint256"
        }
      ],
      "stateMutability": "view",
      "type": "function"
    },
    {
      "inputs": [
        {
          "internalType": "uint256",
          "name": "tokenId",
          "type": "uint256"
        }
      ],
      "name": "ownerOf",
      "outputs": [
        {
          "internalType": "address",
          "name": "",
          "type": "address"
        }
      ],
      "stateMutability": "view",
      "type": "function"
    },
    {
      "inputs": [],
      "name": "remainingMintableNFTs",
      "outputs": [
        {
          "internalType": "uint256",
          "name": "",
          "type": "uint256"
        }
      ],
      "stateMutability": "view",
      "type": "function"
    },
    {
      "inputs": [
        {
          "internalType": "address",
          "name": "from",
          "type": "address"
        },
        {
          "internalType": "address",
          "name": "to",
          "type": "address"
        },
        {
          "internalType": "uint256",
          "name": "tokenId",
          "type": "uint256"
        }
      ],
      "name": "safeTransferFrom",
      "outputs": [],
      "stateMutability": "nonpayable",
      "type": "function"
    },
    {
      "inputs": [
        {
          "internalType": "address",
          "name": "from",
          "type": "address"
        },
        {
          "internalType": "address",
          "name": "to",
          "type": "address"
        },
        {
          "internalType": "uint256",
          "name": "tokenId",
          "type": "uint256"
        },
        {
          "internalType": "bytes",
          "name": "_data",
          "type": "bytes"
        }
      ],
      "name": "safeTransferFrom",
      "outputs": [],
      "stateMutability": "nonpayable",
      "type": "function"
    },
    {
      "inputs": [
        {
          "internalType": "address",
          "name": "operator",
          "type": "address"
        },
        {
          "internalType": "bool",
          "name": "approved",
          "type": "bool"
        }
      ],
      "name": "setApprovalForAll",
      "outputs": [],
      "stateMutability": "nonpayable",
      "type": "function"
    },
    {
      "inputs": [
        {
          "internalType": "bytes4",
          "name": "interfaceId",
          "type": "bytes4"
        }
      ],
      "name": "supportsInterface",
      "outputs": [
        {
          "internalType": "bool",
          "name": "",
          "type": "bool"
        }
      ],
      "stateMutability": "view",
      "type": "function"
    },
    {
      "inputs": [],
      "name": "symbol",
      "outputs": [
        {
          "internalType": "string",
          "name": "",
          "type": "string"
        }
      ],
      "stateMutability": "view",
      "type": "function"
    },
    {
      "inputs": [
        {
          "internalType": "uint256",
          "name": "tokenId",
          "type": "uint256"
        }
      ],
      "name": "tokenURI",
      "outputs": [
        {
          "internalType": "string",
          "name": "",
          "type": "string"
        }
      ],
      "stateMutability": "view",
      "type": "function"
    },
    {
      "inputs": [
        {
          "internalType": "address",
          "name": "from",
          "type": "address"
        },
        {
          "internalType": "address",
          "name": "to",
          "type": "address"
        },
        {
          "internalType": "uint256",
          "name": "tokenId",
          "type": "uint256"
        }
      ],
      "name": "transferFrom",
      "outputs": [],
      "stateMutability": "nonpayable",
      "type": "function"
    }
  ],
  "bytecode": "0x60806040523480156200001157600080fd5b506040518060400160405280601181526020017f46696c476f6f64204e46547320323032320000000000000000000000000000008152506040518060400160405280601581526020017f46696c65636f696e2053746172746572204e4654730000000000000000000000815250816000908051906020019062000096929190620001df565b508060019080519060200190620000af929190620001df565b505050620000fd6040518060400160405280601e81526020017f54686973206973206d7920455243373231204e465420636f6e747261637400008152506200011360201b62000f911760201c565b60646008819055506064600981905550620003bc565b620001b3816040516024016200012a9190620002d0565b6040516020818303038152906040527f41304fac000000000000000000000000000000000000000000000000000000007bffffffffffffffffffffffffffffffffffffffffffffffffffffffff19166020820180517bffffffffffffffffffffffffffffffffffffffffffffffffffffffff8381831617835250505050620001b660201b60201c565b50565b60008151905060006a636f6e736f6c652e6c6f679050602083016000808483855afa5050505050565b828054620001ed9062000346565b90600052602060002090601f0160209004810192826200021157600085556200025d565b82601f106200022c57805160ff19168380011785556200025d565b828001600101855582156200025d579182015b828111156200025c5782518255916020019190600101906200023f565b5b5090506200026c919062000270565b5090565b5b808211156200028b57600081600090555060010162000271565b5090565b60006200029c82620002f4565b620002a88185620002ff565b9350620002ba81856020860162000310565b620002c581620003ab565b840191505092915050565b60006020820190508181036000830152620002ec81846200028f565b905092915050565b600081519050919050565b600082825260208201905092915050565b60005b838110156200033057808201518184015260208101905062000313565b8381111562000340576000848401525b50505050565b600060028204905060018216806200035f57607f821691505b602082108114156200037657620003756200037c565b5b50919050565b7f4e487b7100000000000000000000000000000000000000000000000000000000600052602260045260246000fd5b6000601f19601f8301169050919050565b61333380620003cc6000396000f3fe608060405234801561001057600080fd5b50600436106101215760003560e01c806370a08231116100ad578063b88d4fde11610071578063b88d4fde1461031c578063c298de7e14610338578063c87b56dd14610356578063e985e9c514610386578063fedea023146103b657610121565b806370a08231146102625780637c711b2714610292578063911fd8eb146102c457806395d89b41146102e2578063a22cb4651461030057610121565b806323b872dd116100f457806323b872dd146101c057806338d64576146101dc57806342842e0e146101f85780634e9e1ec6146102145780636352211e1461023257610121565b806301ffc9a71461012657806306fdde0314610156578063081812fc14610174578063095ea7b3146101a4575b600080fd5b610140600480360381019061013b9190612195565b6103d4565b60405161014d919061276c565b60405180910390f35b61015e6104b6565b60405161016b9190612787565b60405180910390f35b61018e60048036038101906101899190612228565b610548565b60405161019b91906126a5565b60405180910390f35b6101be60048036038101906101b99190612159565b6105cd565b005b6101da60048036038101906101d59190612053565b6106e5565b005b6101f660048036038101906101f191906121e7565b610745565b005b610212600480360381019061020d9190612053565b6108ce565b005b61021c6108ee565b60405161022991906129d9565b60405180910390f35b61024c60048036038101906102479190612228565b6108f4565b60405161025991906126a5565b60405180910390f35b61027c60048036038101906102779190611fee565b6109a6565b60405161028991906129d9565b60405180910390f35b6102ac60048036038101906102a79190612228565b610a5e565b6040516102bb9392919061270c565b60405180910390f35b6102cc610b40565b6040516102d991906129d9565b60405180910390f35b6102ea610b46565b6040516102f79190612787565b60405180910390f35b61031a6004803603810190610315919061211d565b610bd8565b005b610336600480360381019061033191906120a2565b610bee565b005b610340610c50565b60405161034d91906129d9565b60405180910390f35b610370600480360381019061036b9190612228565b610c5a565b60405161037d9190612787565b60405180910390f35b6103a0600480360381019061039b9190612017565b610dac565b6040516103ad919061276c565b60405180910390f35b6103be610e40565b6040516103cb919061274a565b60405180910390f35b60007f80ac58cd000000000000000000000000000000000000000000000000000000007bffffffffffffffffffffffffffffffffffffffffffffffffffffffff1916827bffffffffffffffffffffffffffffffffffffffffffffffffffffffff1916148061049f57507f5b5e139f000000000000000000000000000000000000000000000000000000007bffffffffffffffffffffffffffffffffffffffffffffffffffffffff1916827bffffffffffffffffffffffffffffffffffffffffffffffffffffffff1916145b806104af57506104ae8261102a565b5b9050919050565b6060600080546104c590612c79565b80601f01602080910402602001604051908101604052809291908181526020018280546104f190612c79565b801561053e5780601f106105135761010080835404028352916020019161053e565b820191906000526020600020905b81548152906001019060200180831161052157829003601f168201915b5050505050905090565b600061055382611094565b610592576040517f08c379a000000000000000000000000000000000000000000000000000000000815260040161058990612959565b60405180910390fd5b6004600083815260200190815260200160002060009054906101000a900473ffffffffffffffffffffffffffffffffffffffff169050919050565b60006105d8826108f4565b90508073ffffffffffffffffffffffffffffffffffffffff168373ffffffffffffffffffffffffffffffffffffffff161415610649576040517f08c379a000000000000000000000000000000000000000000000000000000000815260040161064090612999565b60405180910390fd5b8073ffffffffffffffffffffffffffffffffffffffff16610668611100565b73ffffffffffffffffffffffffffffffffffffffff161480610697575061069681610691611100565b610dac565b5b6106d6576040517f08c379a00000000000000000000000000000000000000000000000000000000081526004016106cd90612899565b60405180910390fd5b6106e08383611108565b505050565b6106f66106f0611100565b826111c1565b610735576040517f08c379a000000000000000000000000000000000000000000000000000000000815260040161072c906129b9565b60405180910390fd5b61074083838361129f565b505050565b6008546107526007611506565b1061075c57600080fd5b60006107686007611506565b9050600060405180606001604052803373ffffffffffffffffffffffffffffffffffffffff1681526020018481526020018381525090506107a93383611514565b6107b38284611532565b6107bd60076115a6565b6107c76007611506565b6008546107d49190612b8f565b600981905550600a81908060018154018082558091505060019003906000526020600020906003020160009091909190915060008201518160000160006101000a81548173ffffffffffffffffffffffffffffffffffffffff021916908373ffffffffffffffffffffffffffffffffffffffff1602179055506020820151816001019080519060200190610869929190611e12565b50604082015181600201555050813373ffffffffffffffffffffffffffffffffffffffff167f79791877b69bd5d876524dcc51d3960d703b55b782691a60d7df02ab86466eaf856009546040516108c19291906127a9565b60405180910390a3505050565b6108e983838360405180602001604052806000815250610bee565b505050565b60085481565b6000806002600084815260200190815260200160002060009054906101000a900473ffffffffffffffffffffffffffffffffffffffff169050600073ffffffffffffffffffffffffffffffffffffffff168173ffffffffffffffffffffffffffffffffffffffff16141561099d576040517f08c379a0000000000000000000000000000000000000000000000000000000008152600401610994906128d9565b60405180910390fd5b80915050919050565b60008073ffffffffffffffffffffffffffffffffffffffff168273ffffffffffffffffffffffffffffffffffffffff161415610a17576040517f08c379a0000000000000000000000000000000000000000000000000000000008152600401610a0e906128b9565b60405180910390fd5b600360008373ffffffffffffffffffffffffffffffffffffffff1673ffffffffffffffffffffffffffffffffffffffff168152602001908152602001600020549050919050565b600a8181548110610a6e57600080fd5b90600052602060002090600302016000915090508060000160009054906101000a900473ffffffffffffffffffffffffffffffffffffffff1690806001018054610ab790612c79565b80601f0160208091040260200160405190810160405280929190818152602001828054610ae390612c79565b8015610b305780601f10610b0557610100808354040283529160200191610b30565b820191906000526020600020905b815481529060010190602001808311610b1357829003601f168201915b5050505050908060020154905083565b60095481565b606060018054610b5590612c79565b80601f0160208091040260200160405190810160405280929190818152602001828054610b8190612c79565b8015610bce5780601f10610ba357610100808354040283529160200191610bce565b820191906000526020600020905b815481529060010190602001808311610bb157829003601f168201915b5050505050905090565b610bea610be3611100565b83836115bc565b5050565b610bff610bf9611100565b836111c1565b610c3e576040517f08c379a0000000000000000000000000000000000000000000000000000000008152600401610c35906129b9565b60405180910390fd5b610c4a84848484611729565b50505050565b6000600954905090565b6060610c6582611094565b610ca4576040517f08c379a0000000000000000000000000000000000000000000000000000000008152600401610c9b90612939565b60405180910390fd5b6000600660008481526020019081526020016000208054610cc490612c79565b80601f0160208091040260200160405190810160405280929190818152602001828054610cf090612c79565b8015610d3d5780601f10610d1257610100808354040283529160200191610d3d565b820191906000526020600020905b815481529060010190602001808311610d2057829003601f168201915b505050505090506000610d4e611785565b9050600081511415610d64578192505050610da7565b600082511115610d99578082604051602001610d81929190612681565b60405160208183030381529060405292505050610da7565b610da28461179c565b925050505b919050565b6000600560008473ffffffffffffffffffffffffffffffffffffffff1673ffffffffffffffffffffffffffffffffffffffff16815260200190815260200160002060008373ffffffffffffffffffffffffffffffffffffffff1673ffffffffffffffffffffffffffffffffffffffff16815260200190815260200160002060009054906101000a900460ff16905092915050565b6060600a805480602002602001604051908101604052809291908181526020016000905b82821015610f8857838290600052602060002090600302016040518060600160405290816000820160009054906101000a900473ffffffffffffffffffffffffffffffffffffffff1673ffffffffffffffffffffffffffffffffffffffff1673ffffffffffffffffffffffffffffffffffffffff168152602001600182018054610eed90612c79565b80601f0160208091040260200160405190810160405280929190818152602001828054610f1990612c79565b8015610f665780601f10610f3b57610100808354040283529160200191610f66565b820191906000526020600020905b815481529060010190602001808311610f4957829003601f168201915b5050505050815260200160028201548152505081526020019060010190610e64565b50505050905090565b61102781604051602401610fa59190612787565b6040516020818303038152906040527f41304fac000000000000000000000000000000000000000000000000000000007bffffffffffffffffffffffffffffffffffffffffffffffffffffffff19166020820180517bffffffffffffffffffffffffffffffffffffffffffffffffffffffff8381831617835250505050611843565b50565b60007f01ffc9a7000000000000000000000000000000000000000000000000000000007bffffffffffffffffffffffffffffffffffffffffffffffffffffffff1916827bffffffffffffffffffffffffffffffffffffffffffffffffffffffff1916149050919050565b60008073ffffffffffffffffffffffffffffffffffffffff166002600084815260200190815260200160002060009054906101000a900473ffffffffffffffffffffffffffffffffffffffff1673ffffffffffffffffffffffffffffffffffffffff1614159050919050565b600033905090565b816004600083815260200190815260200160002060006101000a81548173ffffffffffffffffffffffffffffffffffffffff021916908373ffffffffffffffffffffffffffffffffffffffff160217905550808273ffffffffffffffffffffffffffffffffffffffff1661117b836108f4565b73ffffffffffffffffffffffffffffffffffffffff167f8c5be1e5ebec7d5bd14f71427d1e84f3dd0314c0f7b2291e5b200ac8c7c3b92560405160405180910390a45050565b60006111cc82611094565b61120b576040517f08c379a000000000000000000000000000000000000000000000000000000000815260040161120290612879565b60405180910390fd5b6000611216836108f4565b90508073ffffffffffffffffffffffffffffffffffffffff168473ffffffffffffffffffffffffffffffffffffffff16148061125857506112578185610dac565b5b8061129657508373ffffffffffffffffffffffffffffffffffffffff1661127e84610548565b73ffffffffffffffffffffffffffffffffffffffff16145b91505092915050565b8273ffffffffffffffffffffffffffffffffffffffff166112bf826108f4565b73ffffffffffffffffffffffffffffffffffffffff1614611315576040517f08c379a000000000000000000000000000000000000000000000000000000000815260040161130c906127f9565b60405180910390fd5b600073ffffffffffffffffffffffffffffffffffffffff168273ffffffffffffffffffffffffffffffffffffffff161415611385576040517f08c379a000000000000000000000000000000000000000000000000000000000815260040161137c90612839565b60405180910390fd5b61139083838361186c565b61139b600082611108565b6001600360008573ffffffffffffffffffffffffffffffffffffffff1673ffffffffffffffffffffffffffffffffffffffff16815260200190815260200160002060008282546113eb9190612b8f565b925050819055506001600360008473ffffffffffffffffffffffffffffffffffffffff1673ffffffffffffffffffffffffffffffffffffffff16815260200190815260200160002060008282546114429190612b08565b92505081905550816002600083815260200190815260200160002060006101000a81548173ffffffffffffffffffffffffffffffffffffffff021916908373ffffffffffffffffffffffffffffffffffffffff160217905550808273ffffffffffffffffffffffffffffffffffffffff168473ffffffffffffffffffffffffffffffffffffffff167fddf252ad1be2c89b69c2b068fc378daa952ba7f163c4a11628f55a4df523b3ef60405160405180910390a4611501838383611871565b505050565b600081600001549050919050565b61152e828260405180602001604052806000815250611876565b5050565b61153b82611094565b61157a576040517f08c379a0000000000000000000000000000000000000000000000000000000008152600401611571906128f9565b60405180910390fd5b806006600084815260200190815260200160002090805190602001906115a1929190611e12565b505050565b6001816000016000828254019250508190555050565b8173ffffffffffffffffffffffffffffffffffffffff168373ffffffffffffffffffffffffffffffffffffffff16141561162b576040517f08c379a000000000000000000000000000000000000000000000000000000000815260040161162290612859565b60405180910390fd5b80600560008573ffffffffffffffffffffffffffffffffffffffff1673ffffffffffffffffffffffffffffffffffffffff16815260200190815260200160002060008473ffffffffffffffffffffffffffffffffffffffff1673ffffffffffffffffffffffffffffffffffffffff16815260200190815260200160002060006101000a81548160ff0219169083151502179055508173ffffffffffffffffffffffffffffffffffffffff168373ffffffffffffffffffffffffffffffffffffffff167f17307eab39ab6107e8899845ad3d59bd9653f200f220920489ca2b5937696c318360405161171c919061276c565b60405180910390a3505050565b61173484848461129f565b611740848484846118d1565b61177f576040517f08c379a0000000000000000000000000000000000000000000000000000000008152600401611776906127d9565b60405180910390fd5b50505050565b606060405180602001604052806000815250905090565b60606117a782611094565b6117e6576040517f08c379a00000000000000000000000000000000000000000000000000000000081526004016117dd90612979565b60405180910390fd5b60006117f0611785565b90506000815111611810576040518060200160405280600081525061183b565b8061181a84611a68565b60405160200161182b929190612681565b6040516020818303038152906040525b915050919050565b60008151905060006a636f6e736f6c652e6c6f679050602083016000808483855afa5050505050565b505050565b505050565b6118808383611c15565b61188d60008484846118d1565b6118cc576040517f08c379a00000000000000000000000000000000000000000000000000000000081526004016118c3906127d9565b60405180910390fd5b505050565b60006118f28473ffffffffffffffffffffffffffffffffffffffff16611def565b15611a5b578373ffffffffffffffffffffffffffffffffffffffff1663150b7a0261191b611100565b8786866040518563ffffffff1660e01b815260040161193d94939291906126c0565b602060405180830381600087803b15801561195757600080fd5b505af192505050801561198857506040513d601f19601f8201168201806040525081019061198591906121be565b60015b611a0b573d80600081146119b8576040519150601f19603f3d011682016040523d82523d6000602084013e6119bd565b606091505b50600081511415611a03576040517f08c379a00000000000000000000000000000000000000000000000000000000081526004016119fa906127d9565b60405180910390fd5b805181602001fd5b63150b7a0260e01b7bffffffffffffffffffffffffffffffffffffffffffffffffffffffff1916817bffffffffffffffffffffffffffffffffffffffffffffffffffffffff191614915050611a60565b600190505b949350505050565b60606000821415611ab0576040518060400160405280600181526020017f30000000000000000000000000000000000000000000000000000000000000008152509050611c10565b600082905060005b60008214611ae2578080611acb90612cdc565b915050600a82611adb9190612b5e565b9150611ab8565b60008167ffffffffffffffff811115611b24577f4e487b7100000000000000000000000000000000000000000000000000000000600052604160045260246000fd5b6040519080825280601f01601f191660200182016040528015611b565781602001600182028036833780820191505090505b5090505b60008514611c0957600182611b6f9190612b8f565b9150600a85611b7e9190612d25565b6030611b8a9190612b08565b60f81b818381518110611bc6577f4e487b7100000000000000000000000000000000000000000000000000000000600052603260045260246000fd5b60200101907effffffffffffffffffffffffffffffffffffffffffffffffffffffffffffff1916908160001a905350600a85611c029190612b5e565b9450611b5a565b8093505050505b919050565b600073ffffffffffffffffffffffffffffffffffffffff168273ffffffffffffffffffffffffffffffffffffffff161415611c85576040517f08c379a0000000000000000000000000000000000000000000000000000000008152600401611c7c90612919565b60405180910390fd5b611c8e81611094565b15611cce576040517f08c379a0000000000000000000000000000000000000000000000000000000008152600401611cc590612819565b60405180910390fd5b611cda6000838361186c565b6001600360008473ffffffffffffffffffffffffffffffffffffffff1673ffffffffffffffffffffffffffffffffffffffff1681526020019081526020016000206000828254611d2a9190612b08565b92505081905550816002600083815260200190815260200160002060006101000a81548173ffffffffffffffffffffffffffffffffffffffff021916908373ffffffffffffffffffffffffffffffffffffffff160217905550808273ffffffffffffffffffffffffffffffffffffffff16600073ffffffffffffffffffffffffffffffffffffffff167fddf252ad1be2c89b69c2b068fc378daa952ba7f163c4a11628f55a4df523b3ef60405160405180910390a4611deb60008383611871565b5050565b6000808273ffffffffffffffffffffffffffffffffffffffff163b119050919050565b828054611e1e90612c79565b90600052602060002090601f016020900481019282611e405760008555611e87565b82601f10611e5957805160ff1916838001178555611e87565b82800160010185558215611e87579182015b82811115611e86578251825591602001919060010190611e6b565b5b509050611e949190611e98565b5090565b5b80821115611eb1576000816000905550600101611e99565b5090565b6000611ec8611ec384612a19565b6129f4565b905082815260208101848484011115611ee057600080fd5b611eeb848285612c37565b509392505050565b6000611f06611f0184612a4a565b6129f4565b905082815260208101848484011115611f1e57600080fd5b611f29848285612c37565b509392505050565b600081359050611f40816132a1565b92915050565b600081359050611f55816132b8565b92915050565b600081359050611f6a816132cf565b92915050565b600081519050611f7f816132cf565b92915050565b600082601f830112611f9657600080fd5b8135611fa6848260208601611eb5565b91505092915050565b600082601f830112611fc057600080fd5b8135611fd0848260208601611ef3565b91505092915050565b600081359050611fe8816132e6565b92915050565b60006020828403121561200057600080fd5b600061200e84828501611f31565b91505092915050565b6000806040838503121561202a57600080fd5b600061203885828601611f31565b925050602061204985828601611f31565b9150509250929050565b60008060006060848603121561206857600080fd5b600061207686828701611f31565b935050602061208786828701611f31565b925050604061209886828701611fd9565b9150509250925092565b600080600080608085870312156120b857600080fd5b60006120c687828801611f31565b94505060206120d787828801611f31565b93505060406120e887828801611fd9565b925050606085013567ffffffffffffffff81111561210557600080fd5b61211187828801611f85565b91505092959194509250565b6000806040838503121561213057600080fd5b600061213e85828601611f31565b925050602061214f85828601611f46565b9150509250929050565b6000806040838503121561216c57600080fd5b600061217a85828601611f31565b925050602061218b85828601611fd9565b9150509250929050565b6000602082840312156121a757600080fd5b60006121b584828501611f5b565b91505092915050565b6000602082840312156121d057600080fd5b60006121de84828501611f70565b91505092915050565b6000602082840312156121f957600080fd5b600082013567ffffffffffffffff81111561221357600080fd5b61221f84828501611faf565b91505092915050565b60006020828403121561223a57600080fd5b600061224884828501611fd9565b91505092915050565b600061225d8383612613565b905092915050565b61226e81612bc3565b82525050565b61227d81612bc3565b82525050565b600061228e82612a8b565b6122988185612ab9565b9350836020820285016122aa85612a7b565b8060005b858110156122e657848403895281516122c78582612251565b94506122d283612aac565b925060208a019950506001810190506122ae565b50829750879550505050505092915050565b61230181612bd5565b82525050565b600061231282612a96565b61231c8185612aca565b935061232c818560208601612c46565b61233581612e12565b840191505092915050565b600061234b82612aa1565b6123558185612adb565b9350612365818560208601612c46565b61236e81612e12565b840191505092915050565b600061238482612aa1565b61238e8185612aec565b935061239e818560208601612c46565b6123a781612e12565b840191505092915050565b60006123bd82612aa1565b6123c78185612afd565b93506123d7818560208601612c46565b80840191505092915050565b60006123f0603283612aec565b91506123fb82612e23565b604082019050919050565b6000612413602583612aec565b915061241e82612e72565b604082019050919050565b6000612436601c83612aec565b915061244182612ec1565b602082019050919050565b6000612459602483612aec565b915061246482612eea565b604082019050919050565b600061247c601983612aec565b915061248782612f39565b602082019050919050565b600061249f602c83612aec565b91506124aa82612f62565b604082019050919050565b60006124c2603883612aec565b91506124cd82612fb1565b604082019050919050565b60006124e5602a83612aec565b91506124f082613000565b604082019050919050565b6000612508602983612aec565b91506125138261304f565b604082019050919050565b600061252b602e83612aec565b91506125368261309e565b604082019050919050565b600061254e602083612aec565b9150612559826130ed565b602082019050919050565b6000612571603183612aec565b915061257c82613116565b604082019050919050565b6000612594602c83612aec565b915061259f82613165565b604082019050919050565b60006125b7602f83612aec565b91506125c2826131b4565b604082019050919050565b60006125da602183612aec565b91506125e582613203565b604082019050919050565b60006125fd603183612aec565b915061260882613252565b604082019050919050565b600060608301600083015161262b6000860182612265565b50602083015184820360208601526126438282612340565b91505060408301516126586040860182612663565b508091505092915050565b61266c81612c2d565b82525050565b61267b81612c2d565b82525050565b600061268d82856123b2565b915061269982846123b2565b91508190509392505050565b60006020820190506126ba6000830184612274565b92915050565b60006080820190506126d56000830187612274565b6126e26020830186612274565b6126ef6040830185612672565b81810360608301526127018184612307565b905095945050505050565b60006060820190506127216000830186612274565b81810360208301526127338185612379565b90506127426040830184612672565b949350505050565b600060208201905081810360008301526127648184612283565b905092915050565b600060208201905061278160008301846122f8565b92915050565b600060208201905081810360008301526127a18184612379565b905092915050565b600060408201905081810360008301526127c38185612379565b90506127d26020830184612672565b9392505050565b600060208201905081810360008301526127f2816123e3565b9050919050565b6000602082019050818103600083015261281281612406565b9050919050565b6000602082019050818103600083015261283281612429565b9050919050565b600060208201905081810360008301526128528161244c565b9050919050565b600060208201905081810360008301526128728161246f565b9050919050565b6000602082019050818103600083015261289281612492565b9050919050565b600060208201905081810360008301526128b2816124b5565b9050919050565b600060208201905081810360008301526128d2816124d8565b9050919050565b600060208201905081810360008301526128f2816124fb565b9050919050565b600060208201905081810360008301526129128161251e565b9050919050565b6000602082019050818103600083015261293281612541565b9050919050565b6000602082019050818103600083015261295281612564565b9050919050565b6000602082019050818103600083015261297281612587565b9050919050565b60006020820190508181036000830152612992816125aa565b9050919050565b600060208201905081810360008301526129b2816125cd565b9050919050565b600060208201905081810360008301526129d2816125f0565b9050919050565b60006020820190506129ee6000830184612672565b92915050565b60006129fe612a0f565b9050612a0a8282612cab565b919050565b6000604051905090565b600067ffffffffffffffff821115612a3457612a33612de3565b5b612a3d82612e12565b9050602081019050919050565b600067ffffffffffffffff821115612a6557612a64612de3565b5b612a6e82612e12565b9050602081019050919050565b6000819050602082019050919050565b600081519050919050565b600081519050919050565b600081519050919050565b6000602082019050919050565b600082825260208201905092915050565b600082825260208201905092915050565b600082825260208201905092915050565b600082825260208201905092915050565b600081905092915050565b6000612b1382612c2d565b9150612b1e83612c2d565b9250827fffffffffffffffffffffffffffffffffffffffffffffffffffffffffffffffff03821115612b5357612b52612d56565b5b828201905092915050565b6000612b6982612c2d565b9150612b7483612c2d565b925082612b8457612b83612d85565b5b828204905092915050565b6000612b9a82612c2d565b9150612ba583612c2d565b925082821015612bb857612bb7612d56565b5b828203905092915050565b6000612bce82612c0d565b9050919050565b60008115159050919050565b60007fffffffff0000000000000000000000000000000000000000000000000000000082169050919050565b600073ffffffffffffffffffffffffffffffffffffffff82169050919050565b6000819050919050565b82818337600083830152505050565b60005b83811015612c64578082015181840152602081019050612c49565b83811115612c73576000848401525b50505050565b60006002820490506001821680612c9157607f821691505b60208210811415612ca557612ca4612db4565b5b50919050565b612cb482612e12565b810181811067ffffffffffffffff82111715612cd357612cd2612de3565b5b80604052505050565b6000612ce782612c2d565b91507fffffffffffffffffffffffffffffffffffffffffffffffffffffffffffffffff821415612d1a57612d19612d56565b5b600182019050919050565b6000612d3082612c2d565b9150612d3b83612c2d565b925082612d4b57612d4a612d85565b5b828206905092915050565b7f4e487b7100000000000000000000000000000000000000000000000000000000600052601160045260246000fd5b7f4e487b7100000000000000000000000000000000000000000000000000000000600052601260045260246000fd5b7f4e487b7100000000000000000000000000000000000000000000000000000000600052602260045260246000fd5b7f4e487b7100000000000000000000000000000000000000000000000000000000600052604160045260246000fd5b6000601f19601f8301169050919050565b7f4552433732313a207472616e7366657220746f206e6f6e20455243373231526560008201527f63656976657220696d706c656d656e7465720000000000000000000000000000602082015250565b7f4552433732313a207472616e736665722066726f6d20696e636f72726563742060008201527f6f776e6572000000000000000000000000000000000000000000000000000000602082015250565b7f4552433732313a20746f6b656e20616c7265616479206d696e74656400000000600082015250565b7f4552433732313a207472616e7366657220746f20746865207a65726f2061646460008201527f7265737300000000000000000000000000000000000000000000000000000000602082015250565b7f4552433732313a20617070726f766520746f2063616c6c657200000000000000600082015250565b7f4552433732313a206f70657261746f7220717565727920666f72206e6f6e657860008201527f697374656e7420746f6b656e0000000000000000000000000000000000000000602082015250565b7f4552433732313a20617070726f76652063616c6c6572206973206e6f74206f7760008201527f6e6572206e6f7220617070726f76656420666f7220616c6c0000000000000000602082015250565b7f4552433732313a2062616c616e636520717565727920666f7220746865207a6560008201527f726f206164647265737300000000000000000000000000000000000000000000602082015250565b7f4552433732313a206f776e657220717565727920666f72206e6f6e657869737460008201527f656e7420746f6b656e0000000000000000000000000000000000000000000000602082015250565b7f45524337323155524953746f726167653a2055524920736574206f66206e6f6e60008201527f6578697374656e7420746f6b656e000000000000000000000000000000000000602082015250565b7f4552433732313a206d696e7420746f20746865207a65726f2061646472657373600082015250565b7f45524337323155524953746f726167653a2055524920717565727920666f722060008201527f6e6f6e6578697374656e7420746f6b656e000000000000000000000000000000602082015250565b7f4552433732313a20617070726f76656420717565727920666f72206e6f6e657860008201527f697374656e7420746f6b656e0000000000000000000000000000000000000000602082015250565b7f4552433732314d657461646174613a2055524920717565727920666f72206e6f60008201527f6e6578697374656e7420746f6b656e0000000000000000000000000000000000602082015250565b7f4552433732313a20617070726f76616c20746f2063757272656e74206f776e6560008201527f7200000000000000000000000000000000000000000000000000000000000000602082015250565b7f4552433732313a207472616e736665722063616c6c6572206973206e6f74206f60008201527f776e6572206e6f7220617070726f766564000000000000000000000000000000602082015250565b6132aa81612bc3565b81146132b557600080fd5b50565b6132c181612bd5565b81146132cc57600080fd5b50565b6132d881612be1565b81146132e357600080fd5b50565b6132ef81612c2d565b81146132fa57600080fd5b5056fea264697066735822122004f91e32121c55aa8ddf90025da753b808242b4bde4097d82bb43b64735a578164736f6c63430008040033",
  "linkReferences": {},
  "deployedLinkReferences": {}
}